:10000000F8FF0020110400004324000043240000F6
:100010004324000043240000432400004324000044
:100020004324000043240000432400004324000034
:100030004324000043240000432400004324000024
:100040004324000043240000432400004324000014
:10040000FFFFFFFFFFFFFFFFFFFFFFFFFEFFFFFFFD
:1004100062B60AF0D3F8FEE710B500200400E4B29B
:10042000082C08DA0022012114F16000C0B201F0AA
:1004300009FE641CF3E7002201214E2001F002FEB8
:10044000012201214C2001F0FDFD0122012150205B
:1004500001F0F8FD002201214D2001F0F3FD002202
:1004600001214F2001F0EEFD4FF4A0714E2001F06C
:10047000DFFE4FF4A0714C2001F0DAFE4FF4A071C2
:10048000502001F0D5FE4FF4A0714D2001F0D0FEB8
:100490000020DFF8241D08600120DFF81C1D086023
:1004A0004FF4FA7001F037FF0120DFF8101D0860EB
:1004B0000020DFF80C1D08600020DFF8081D086030
:1004C0001120DFF8041D08700020DFF8001D08600F
:1004D0000120DFF8F81C08600120DFF8E81C086044
:1004E000782001F018FF0120DFF8D01C0860002000
:1004F000DFF8CC1C08600020DFF8C81C0860B120C1
:10050000DFF8C41C08700020DFF8C01C0860012060
:10051000DFF8B81C08600120DFF8A81C0860012083
:10052000DFF8981C08600120DFF8941C08600020A8
:10053000DFF8901C08600520DFF88C1C0870002094
:10054000DFF8881C08600120DFF8801C08600120AB
:10055000DFF8701C08600120DFF8601C08600120D3
:10056000DFF85C1C08600020DFF8581C08603A20A7
:10057000DFF8541C08700020DFF8501C08600120D0
:10058000DFF8481C08600120DFF8381C08600120F3
:10059000DFF8281C08600120DFF8241C0860002018
:1005A000DFF8201C08603A20DFF81C1C08700020CF
:1005B000DFF8181C08600120DFF8101C086001201B
:1005C000DFF8001C08600120DFF8F01B0860002045
:1005D000DFF8EC1B08600020DFF8E81B0860B220A1
:1005E000DFF8E41B08700020DFF8E01B0860012042
:1005F000DFF8D81B08600120DFF8C81B0860012065
:10060000DFF8B81B08600120DFF8B41B0860002089
:10061000DFF8B01B08600520DFF8AC1B0870002075
:10062000DFF8A81B08600120DFF8A01B086001208C
:10063000DFF8901B08600120DFF8801B08600120B4
:10064000DFF87C1B08600020DFF8781B08603A2088
:10065000DFF8741B08700020DFF8701B08600120B1
:10066000DFF8681B08600120DFF8581B08600120D4
:10067000DFF8481B08600120DFF8441B08600020F9
:10068000DFF8401B08603A20DFF83C1B08700020B0
:10069000DFF8381B08600120DFF8301B08600120FC
:1006A000DFF8201B08600120DFF8101B0860002025
:1006B000DFF80C1B08600020DFF8081B0860B3207F
:1006C000DFF8041B08700020DFF8001B0860012021
:1006D000DFF8F81A08600120DFF8E81A0860012046
:1006E000DFF8D81A08600120DFF8D41A086000206B
:1006F000DFF8D01A08600520DFF8CC1A0870002057
:10070000DFF8C81A08600120DFF8C01A086001206D
:10071000DFF8B01A08600120DFF8A01A0860012095
:10072000DFF89C1A08600020DFF8981A08603A2069
:10073000DFF8941A08700020DFF8901A0860012092
:10074000DFF8881A08600120DFF8781A08600120B5
:10075000DFF8681A08600120DFF8641A08600020DA
:10076000DFF8601A08603A20DFF85C1A0870002091
:10077000DFF8581A08600120DFF8501A08600120DD
:10078000DFF8401A08600120DFF8301A0860012005
:10079000DFF82C1A08600020DFF8281A086005200E
:1007A000DFF8241A08700020DFF8201A0860012002
:1007B000DFF8181A08600120DFF8081A0860012025
:1007C000DFF8F81908600120DFF8F419086000204C
:1007D000DFF8F01908603A20DFF8EC190870002003
:1007E000DFF8E81908600120DFF8E019086001204F
:1007F000DFF8D01908600120DFF8C0190860012077
:10080000DFF8BC1908600020DFF8B81908603A204A
:10081000DFF8B41908700020DFF8B0190860012073
:10082000DFF8A81908600120DFF898190860012096
:10083000DFF8881908600020DFF8841908600020BC
:10084000DFF880190860B420DFF87C1908700020F8
:10085000DFF8781908600120DFF8701908600120BE
:10086000DFF8601908600120DFF8501908600120E6
:10087000DFF84C1908600020DFF8481908600720ED
:10088000DFF8441908700020DFF8401908600120E3
:10089000DFF8381908600120DFF828190860012006
:1008A000DFF8181908600020DFF81419086000202C
:1008B000DFF810190860C020DFF80C19087000205C
:1008C000DFF8081908600120DFF80019086001202E
:1008D000DFF8F01808600120DFF8E0180860012058
:1008E000DFF8DC1808600020DFF8D818086028203E
:1008F000DFF8D41808700020DFF8D0180860012055
:10090000DFF8C81808600120DFF8B8180860012077
:10091000DFF8A81808600120DFF8A418086000209C
:10092000DFF8A01808600820DFF89C180870002085
:10093000DFF8981808600120DFF89018086001209F
:10094000DFF8801808600120DFF8701808600120C7
:10095000DFF86C1808600020DFF868180860842051
:10096000DFF8641808700020DFF8601808600120C4
:10097000DFF8581808600120DFF8481808600120E7
:10098000DFF8381808600020DFF83418086000200D
:10099000DFF830180860C120DFF82C18087000203C
:1009A000DFF8281808600120DFF82018086001200F
:1009B000DFF8101808600120DFF800180860012037
:1009C000DFF8FC1708600020DFF8F8170860C02087
:1009D000DFF8F41708700020DFF8F0170860012036
:1009E000DFF8E81708600120DFF8D8170860012059
:1009F000DFF8C81708600020DFF8C417086000207F
:100A0000DFF8C0170860C220DFF8BC1708700020AC
:100A1000DFF8B81708600120DFF8B0170860012080
:100A2000DFF8A01708600120DFF8901708600120A8
:100A3000DFF88C1708600020DFF8881708600C20AA
:100A4000DFF8841708700020DFF8801708600120A5
:100A5000DFF8781708600120DFF8681708600120C8
:100A6000DFF8581708600120DFF8541708600020ED
:100A7000DFF8501708600020DFF84C1708700020DE
:100A8000DFF8481708600120DFF8401708600120F0
:100A9000DFF8301708600120DFF820170860002019
:100AA000DFF81C1708600020DFF818170860C32063
:100AB000DFF8141708700020DFF810170860012015
:100AC000DFF8081708600120DFF8F8160860012039
:100AD000DFF8E81608600120DFF8E416086000205F
:100AE000DFF8E01608608C20DFF8DC1608700020C4
:100AF000DFF8D81608600120DFF8D0160860012062
:100B0000DFF8C01608600120DFF8B0160860012089
:100B1000DFF8AC1608600020DFF8A81608602A206D
:100B2000DFF8A41608700020DFF8A0160860012086
:100B3000DFF8981608600120DFF8881608600120A9
:100B4000DFF8781608600020DFF8741608600020CF
:100B5000DFF870160860C420DFF86C1608700020FB
:100B6000DFF8681608600120DFF8601608600120D1
:100B7000DFF8501608600120DFF8401608600120F9
:100B8000DFF83C1608600020DFF8381608608A207D
:100B9000DFF8341608700020DFF8301608600120F6
:100BA000DFF8281608600120DFF818160860012019
:100BB000DFF8081608600120DFF80416086000203E
:100BC000DFF800160860EE20DFF8FC150870002042
:100BD000DFF8F81508600120DFF8F0150860012043
:100BE000DFF8E01508600120DFF8D015086000206C
:100BF000DFF8CC1508600020DFF8C8150860C520B4
:100C0000DFF8C41508700020DFF8C0150860012067
:100C1000DFF8B81508600120DFF8A815086001208A
:100C2000DFF8981508600120DFF8941508600020AF
:100C3000DFF8901508600C20DFF88C150870002094
:100C4000DFF8881508600120DFF8801508600120B2
:100C5000DFF8701508600120DFF8601508600020DB
:100C6000DFF85C1508600020DFF858150860E02008
:100C7000DFF8541508700020DFF8501508600120D7
:100C8000DFF8481508600120DFF8381508600120FA
:100C9000DFF8281508600120DFF82415086000201F
:100CA000DFF8201508600520DFF81C15087000200B
:100CB000DFF8181508600120DFF810150860012022
:100CC000DFF8001508600120DFF8F014086001204B
:100CD000DFF8EC1408600020DFF8E81408601A2040
:100CE000DFF8E41408700020DFF8E0140860012049
:100CF000DFF8D81408600120DFF8C814086001206C
:100D0000DFF8B81408600120DFF8B4140860002090
:100D1000DFF8B01408600C20DFF8AC140870002075
:100D2000DFF8A81408600120DFF8A0140860012093
:100D3000DFF8901408600120DFF8801408600120BB
:100D4000DFF87C1408600020DFF8781408600E20BB
:100D5000DFF8741408700020DFF8701408600120B8
:100D6000DFF8681408600120DFF8581408600120DB
:100D7000DFF8481408600120DFF844140860002000
:100D8000DFF8401408603A20DFF83C1408700020B7
:100D9000DFF8381408600120DFF830140860012003
:100DA000DFF8201408600120DFF81014086001202B
:100DB000DFF80C1408600020DFF808140860342005
:100DC000DFF8041408700020DFF800140860012028
:100DD000DFF8F81308600120DFF8E813086001204D
:100DE000DFF8D81308600120DFF8D4130860002072
:100DF000DFF8D01308602D20DFF8CC130870002036
:100E0000DFF8C81308600120DFF8C0130860012074
:100E1000DFF8B01308600120DFF8A013086001209C
:100E2000DFF89C1308600020DFF8981308602F207B
:100E3000DFF8941308700020DFF890130860012099
:100E4000DFF8881308600120DFF8781308600120BC
:100E5000DFF8681308600120DFF8641308600020E1
:100E6000DFF8601308602D20DFF85C1308700020A5
:100E7000DFF8581308600120DFF8501308600120E4
:100E8000DFF8401308600120DFF83013086001200C
:100E9000DFF82C1308600020DFF8281308602A20F0
:100EA000DFF8241308700020DFF820130860012009
:100EB000DFF8181308600120DFF80813086001202C
:100EC000DFF8F81208600120DFF8F4120860002053
:100ED000DFF8F01208602F20BB4908700020BB49E2
:100EE00008600120B94908600120B6490860012066
:100EF000B24908600120B24908600020B149086089
:100F00003C20B14908700020B04908600120AF4979
:100F100008600120AB4908600120A8490860012051
:100F2000A74908600020A74908600020A64908706A
:100F30000020A64908600120A44908600120A149B9
:100F4000086001209D49086001209D49086000203B
:100F50009C49086001209C49087000209B4908605A
:100F600001209A49086001209649086001209349B0
:100F70000860012092490860002092490860022020
:100F80009149087000209149086001208F4908604C
:100F900001208C49086001208849086001208849A7
:100FA00008600020874908601020874908700020E9
:100FB0008649086001208549086001208149086050
:100FC00001207E49086000207D49086000207D499D
:100FD0000860E1207C49087000207C4908600120FD
:100FE0007A49086001207749086001207349086048
:100FF000012073490860002072490860042072498A
:1010000008700020714908600120704908600120C3
:101010006C4908600120694908600120684908603E
:101020000020684908601B20674908700020674954
:1010300008600120654908600120624908600120BC
:101040005E49086001205E49086000205D49086033
:101050000D205D49087000205C49086001205B4953
:1010600008600120574908600120544908600120A8
:10107000534908600020534908600E205249087007
:1010800000205249086001205049086001204D4964
:101090000860012049490860012049490860002092
:1010A000484908602D2048490870002047490860D9
:1010B00001204649086001204249086001203F495B
:1010C000086001203E49086000203E490860292050
:1010D0003D49087000203D49086001203B490860F7
:1010E0000120384908600120344908600120344952
:1010F000086000203349086024203349087000202C
:101100003249086001203149086001202D490860FA
:1011100001202A4908600120294908600020294946
:10112000086029202849087000202849086001200B
:101130002649086001202349086001201F490860F2
:1011400001201F49086000201E49086028201E4910
:10115000087000201D49086001201C49086001201A
:1011600018490860012015490860012014490860E9
:1011700000201449086026201349087000201349F4
:10118000086001201149086001200E490860012013
:101190000A49086001200A490860002009490860DE
:1011A00031200949087000200849086001200749DA
:1011B0000860012003490BE03C10FE433010FE4361
:1011C0003410FE434010FE43C0F00F403810FE4381
:1011D00008600120DFF80C1C08600120DFF8081C03
:1011E00008600020DFF8041C08603B20DFF8001CCA
:1011F00008700020DFF8FC1B08600120DFF8F41BFA
:1012000008600120DFF8E41B08600120DFF8D41B30
:1012100008600120DFF8D01B08600020DFF8CC1B3D
:1012200008600020DFF8C81B08700020DFF8C41B2E
:1012300008600120DFF8BC1B08600120DFF8AC1B50
:1012400008600120DFF89C1B08600120DFF8981B74
:1012500008600020DFF8941B08600020DFF8901B76
:1012600008700020DFF88C1B08600120DFF8841B69
:1012700008600120DFF8741B08600120DFF8641BA0
:1012800008600120DFF8601B08600020DFF85C1BAD
:1012900008600320DFF8581B08700020DFF8541B9B
:1012A00008600120DFF84C1B08600120DFF83C1BC0
:1012B00008600120DFF82C1B08600120DFF8281BE4
:1012C00008600020DFF8241B08601220DFF8201BD4
:1012D00008700020DFF81C1B08600120DFF8141BD9
:1012E00008600120DFF8041B08600120DFF8F41A11
:1012F00008600020DFF8F01A08600020DFF8EC1A20
:1013000008603A20DFF8E81A08700020DFF8E41AD5
:1013100008600120DFF8DC1A08600120DFF8CC1A31
:1013200008600120DFF8BC1A08600120DFF8B81A55
:1013300008600020DFF8B41A08600520DFF8B01A52
:1013400008700020DFF8AC1A08600120DFF8A41A4A
:1013500008600120DFF8941A08600120DFF8841A81
:1013600008600020DFF8801A08600020DFF87C1A8F
:1013700008602920DFF8781A08700020DFF8741A56
:1013800008600120DFF86C1A08600120DFF85C1AA1
:1013900008600120DFF84C1A08600020DFF8481AC6
:1013A00008600020DFF8441A08602C20DFF8401A9B
:1013B00008700020DFF83C1A08600120DFF8341ABA
:1013C00008600120DFF8241A0860DFF8540C007868
:1013D00000F001F810BD10B50400E4B2042C04DBE9
:1013E000C821DFF8400C00F0C2FFDFF8340C0470B5
:1013F000E4B2002C09D0022C00F0B982C0F05E816A
:10140000032C00F0EA8300F0EBBC0120DFF8D419D4
:1014100008600020DFF8D01908600020DFF8CC1940
:1014200008603620DFF8C81908700020DFF8C419FA
:1014300008600120DFF8BC1908600120DFF8AC1952
:1014400008600120DFF89C1908600120DFF8981976
:1014500008600020DFF894190860C820DFF89019B0
:1014600008700020DFF88C1908600120DFF884196B
:1014700008600120DFF8741908600120DFF86419A2
:1014800008600020DFF8601908600020DFF85C19B0
:1014900008602A20DFF8581908700020DFF8541976
:1014A00008600120DFF84C1908600120DFF83C19C2
:1014B00008600120DFF82C1908600120DFF82819E6
:1014C00008600020DFF8241908600020DFF82019E8
:1014D00008700020DFF81C1908600120DFF81419DB
:1014E00008600120DFF8041908600120DFF8F41813
:1014F00008600120DFF8F01808600020DFF8EC1821
:1015000008600220DFF8E81808700020DFF8E4180F
:1015100008600120DFF8DC1808600120DFF8CC1833
:1015200008600120DFF8BC1808600120DFF8B81857
:1015300008600020DFF8B41808600020DFF8B01859
:1015400008700020DFF8AC1808600120DFF8A4184C
:1015500008600120DFF8941808600120DFF8841883
:1015600008600120DFF8801808600020DFF87C1890
:1015700008608120DFF8781808700020DFF8741800
:1015800008600120DFF86C1808600120DFF85C18A3
:1015900008600120DFF84C1808600020DFF84818C8
:1015A00008600020DFF8441808602B20DFF840189E
:1015B00008700020DFF83C1808600120DFF83418BC
:1015C00008600120DFF8241808600120DFF81418F3
:1015D00008600120DFF8101808600020DFF80C1800
:1015E00008600020DFF8081808700020DFF80418F1
:1015F00008600120DFF8FC1708600120DFF8EC1715
:1016000008600120DFF8DC1708600120DFF8D81738
:1016100008600020DFF8D41708600320DFF8D01737
:1016200008700020DFF8CC1708600120DFF8C4172D
:1016300008600120DFF8B41708600120DFF8A41764
:1016400008600120DFF8A01708600020DFF89C1771
:1016500008600020DFF8981708700020DFF8941762
:1016600008600120DFF88C1708600120DFF87C1784
:1016700008600120DFF86C1708600120DFF86817A8
:1016800008600020DFF8641708608220DFF8601728
:1016900008700020DFF85C1708600120DFF854179D
:1016A00008600120DFF8441708608020DFF878190F
:1016B00008808020DFF87419088091E30120DFF8AA
:1016C000241708600020DFF8201708600020DFF8EA
:1016D0001C1708603620DFF8181708700020DFF8A4
:1016E000141708600120DFF80C1708600120DFF8EC
:1016F000FC1608600120DFF8EC1608600120DFF816
:10170000E81608600020DFF8E4160860A820DFF87B
:10171000E01608700020DFF8DC1608600120DFF812
:10172000D41608600120DFF8C41608600120DFF835
:10173000B41608600020DFF8B01608600020DFF85B
:10174000AC1608602A20DFF8A81608700020DFF821
:10175000A41608600120DFF89C1608600120DFF85D
:101760008C1608600120DFF87C1608600120DFF885
:10177000781608600020DFF8741608600020DFF893
:10178000701608700020DFF86C1608600120DFF882
:10179000641608600120DFF8541608600120DFF8A5
:1017A000441608600120DFF8401608600020DFF8CA
:1017B0003C1608600320DFF8381608700020DFF8B8
:1017C000341608600120DFF82C1608600120DFF8CD
:1017D0001C1608600120DFF80C1608600120DFF8F5
:1017E000081608600020DFF8041608600020DFF803
:1017F000001608700020DFF8FC1508600120DFF8F3
:10180000F41508600120DFF8E41508600120DFF816
:10181000D41508600120DFF8D01508600020DFF83B
:10182000CC1508608220DFF8C81508700020DFF8AA
:10183000C41508600120DFF8BC1508600120DFF83E
:10184000AC1508600120DFF89C1508600020DFF867
:10185000981508600020DFF8941508602B20DFF849
:10186000901508700020DFF88C1508600120DFF863
:10187000841508600120DFF8741508600120DFF886
:10188000641508600120DFF8601508600020DFF8AB
:101890005C1508600020DFF8581508700020DFF89C
:1018A000541508600120DFF84C1508600120DFF8AE
:1018B0003C1508600120DFF82C1508600120DFF8D6
:1018C000281508600020DFF8241508600220DFF8E2
:1018D000201508700020DFF81C1508600120DFF8D3
:1018E000141508600120DFF8041508600120DFF8F6
:1018F000F41408600120DFF8F01408600020DFF81D
:10190000EC1408600020DFF8E81408700020DFF80D
:10191000E41408600120DFF8DC1408600120DFF81F
:10192000CC1408600120DFF8BC1408600120DFF847
:10193000B81408600020DFF8B41408608120DFF8D4
:10194000B01408700020DFF8AC1408600120DFF844
:10195000A41408600120DFF8941408608020DFF8E8
:10196000C81608808020DFF8C416088038E20120FD
:10197000DFF8701408600020DFF86C1408600020A5
:10198000DFF8681408603620DFF86414087000205F
:10199000DFF8601408600120DFF8581408600120A7
:1019A000DFF8481408600120DFF8381408600120CF
:1019B000DFF8341408600020DFF8301408600820D5
:1019C000DFF82C1408700020DFF8281408600120CC
:1019D000DFF8201408600120DFF8101408600120EF
:1019E000DFF8001408600020DFF8FC130860002016
:1019F000DFF8F81308602A20DFF8F41308700020DD
:101A0000DFF8F01308600120DFF8E8130860012018
:101A1000DFF8D81308600120DFF8C8130860012040
:101A2000DFF8C41308600020DFF8C013086000204E
:101A3000DFF8BC1308700020DFF8B813086001203D
:101A4000DFF8B01308600120DFF8A0130860012060
:101A5000DFF8901308600120DFF88C130860002085
:101A6000DFF8881308600220DFF884130870002074
:101A7000DFF8801308600120DFF878130860012088
:101A8000DFF8681308600120DFF8581308600120B0
:101A9000DFF8541308600020DFF8501308600020BE
:101AA000DFF84C1308700020DFF8481308600120AD
:101AB000DFF8401308600120DFF8301308600120D0
:101AC000DFF8201308600120DFF81C1308600020F5
:101AD000DFF8181308608120DFF814130870002065
:101AE000DFF8101308600120DFF8081308600120F8
:101AF000DFF8F81208600120BA4908600020BA49EE
:101B000008600020B94908602B20B94908700020FE
:101B1000B84908600120B74908600120B34908604E
:101B20000120B04908600120AF4908600020AF499A
:101B300008600020AE4908700020AE49086001200E
:101B4000AC4908600120A94908600120A549086046
:101B50000120A54908600020A44908600320A44989
:101B600008700020A34908600120A24908600120F4
:101B70009E49086001209B49086001209A4908603D
:101B800000209A490860002099490870002099496E
:101B900008600120974908600120944908600120ED
:101BA0009049086001209049086000208F49086032
:101BB00082208F49087000208E49086001208D49DD
:101BC00008600120894908608020DFF85C140880E3
:101BD0008020DFF85814088002E101208149086064
:101BE0000020814908600020804908603620804933
:101BF000087000207F49086001207E4908600120AC
:101C00007A49086001207749086001207649086018
:101C100000207649086068207549087000207549E1
:101C200008600120734908600120704908600120A4
:101C30006C49086000206C49086000206B4908600E
:101C40002A206B49087000206A4908600120694910
:101C50000860012065490860012062490860012090
:101C600061490860002061490860002060490870EF
:101C700000206049086001205E49086001205B493E
:101C8000086001205749086001205749086000207A
:101C900056490860032056490870002055490860DD
:101CA00001205449086001205049086001204D4935
:101CB000086001204C49086000204C490860002061
:101CC0004B49087000204B490860012049490860D1
:101CD000012046490860012042490860012042492C
:101CE00008600020414908608220414908700020B6
:101CF0004049086001203F49086001203B490860D5
:101D00000120384908600020374908600020374921
:101D100008602B20364908700020364908600120F1
:101D20003449086001203149086001202D490860CC
:101D300001202D49086000202C49086000202C4912
:101D4000087000202B49086001202A490860012002
:101D500026490860012023490860012022490860C3
:101D600000202249086002202149087000202149F2
:101D7000086001201F49086001201C4908600120FB
:101D800018490860012018490860002017490860B8
:101D900000201749087000201649086001201549E5
:101DA000086001201149086001200E4908600120E7
:101DB0000D49086000200D49086081200C49087019
:101DC00000200C49086001200A49086001200749E9
:101DD0000860802094490880802094490880FFE7AB
:101DE00010BD00003010FE433410FE434010FE438F
:101DF000C0F00F403810FE4303B489480078C00794
:101E00000AD5BDF80000C01CADF80000BDF8020006
:101E1000801CADF8020009E0BDF80000801CADF8A0
:101E20000000BDF80200C01CADF80200012080498E
:101E3000086000207F49086000207F4908602A2050
:101E40007E49087000207E49086001207C490860B6
:101E50000120794908600120754908600120754911
:101E60000860002074490860BDF8000080B2000AD4
:101E700072490870002072490860012070490860AA
:101E800001206D4908600120694908600120694905
:101E90000860002068490860BDF8000067490870C4
:101EA00000206749086001206549086001206249F7
:101EB000086001205E49086001205E49086000203A
:101EC0005D490860BDF80000BDF8041011FA80F00B
:101ED000401E00125949087000205949086001202D
:101EE00057490860012054490860012050490860A2
:101EF00001205049086000204F490860BDF80000EB
:101F0000BDF804100818401E4C49087000204C49C8
:101F1000086001204A490860012047490860012003
:101F20004349086000204349086000204249086096
:101F30002B20424908700020414908600120404997
:101F4000086001203C4908600120394908600120EF
:101F500038490860002038490860BDF8020080B2A6
:101F6000000A3649087000203549086001203449CC
:101F7000086001203049086001202D4908600120D7
:101F80002C49086000202C490860BDF802002B494C
:101F9000087000202A4908600120294908600120B2
:101FA0002549086001202249086001202149086074
:101FB000002021490860BDF80200BDF8061011FAA2
:101FC00080F0401E00121D49087000201C49086066
:101FD00001201B49086001201749086001201449AD
:101FE0000860012013490860002013490860BDF80B
:101FF0000200BDF806100818401E104908700020A5
:102000000F49086001200E49086001200A49086054
:1020100002B0704704480088704704480088704741
:102020007211FF1F24AB0000980CFF1F9A0CFF1FBA
:102030003010FE433410FE434010FE43C0F00F400A
:102040003810FE4370B504000D0016004FF4807187
:102050002000C0B200F0ECF86DB2002D11D1724832
:10206000E4B2611150F821006F49E4B2621151F8F5
:1020700022104969012214F01F039A4091434161E3
:1020800036E06948E4B2611150F821006649E4B2D3
:10209000621151F822104969012214F01F039A407D
:1020A00011434161F6B2002E11D15F48E4B26111D3
:1020B00050F821000068012114F01F02914088436C
:1020C0005949E4B2621151F82210086010E05648F4
:1020D000E4B2611150F821000068012114F01F02E0
:1020E000914008435049E4B2621151F8221008604F
:1020F00070BD30B449B2002911D14B4AC0B243116E
:1021000052F82320484BC0B2441153F824305B6985
:10211000012410F01F05AC40A343536110E0424A74
:10212000C0B2431152F823203F4BC0B2441153F8C0
:1021300024305B69012410F01F05AC402343536138
:1021400030BC704738B504000D003748E4B2611167
:1021500050F82100406914F01F01C840C00703D4A3
:102160006321324800F003F9EDB2002D11D12E4861
:10217000E4B2611150F821000068012114F01F023F
:10218000914088432849E4B2621151F82210086056
:1021900010E02548E4B2611150F8210000680121E7
:1021A00014F01F02914008431F49E4B2621151F834
:1021B0002210086031BD10B504001B48E4B2611163
:1021C00050F82100406914F01F01C840C00703D433
:1021D0007B21164800F0CBF81348E4B2611150F8A7
:1021E0002100012114F01F029140C16010BD10B503
:1021F00004000D48E4B2611150F82100406914F068
:102200001F01C840C00703D58C21084800F0AFF873
:102210000548E4B2611150F82100006914F01F0173
:10222000C84010F0010010BD900BFF1FB4AC0000BF
:1022300010B4294A12684FF40073C0B24409A34095
:102240001A43254B1A60254AC0B2431152F8232085
:10225000012310F01F04A340C2F8A0301F4AC0B2EF
:10226000431152F82320C0B210F01F0342F823108C
:1022700010BC704710B4184A12684FF40073C0B213
:102280004409A3401A43144B1A60144AC0B24311C4
:1022900052F82320012310F01F04A340C2F8A030FD
:1022A00031F4E0610D4AC0B2431152F82320C0B2AC
:1022B00010F01F0352F8232012F4E0621143074A82
:1022C000C0B2431152F82320C0B210F01F0342F8ED
:1022D000231010BC7047000038800440EC0BFF1F37
:1022E00010B50400002C15D0B4F1807F03D3292150
:1022F0000F4800F03CF800200E4908600E480460CA
:1023000000200E49086005200A4908600948006855
:10231000C003FBD510BD10B504002000441E0028EA
:1023200004D007480068FFF7DBFFF6E710BD0000A8
:102330006CAB000010E000E014E000E018E000E00A
:102340009810FF1FDFF800F0010EFF1FDFF800F00C
:10235000310EFF1FBFF34F8F4648006810F4E06056
:102360004549084343490860BFF34F8FFEE738B53E
:1023700004000D00002000F08DF82A0021003F48E5
:1023800000F0C0F8002000F0A2F84FF47A70FFF7D8
:10239000C2FFF2E738B504000D00210049B2042065
:1023A00000F0E8F9200032BD10B50024042000F050
:1023B0001DFA042000F050FA002841D1002000F05E
:1023C00069F8042000F048FA012801D10120040036
:1023D000002000F07CF82A4800F094F84FF4FA70DE
:1023E000FFF799FFE4B2012CEBD1042000F034FA9E
:1023F0000028E6D1042000F02FFA002806D10020A2
:1024000000F065F86420FFF786FFF3E7042000F092
:1024100023FA012806D1002000F059F83220FFF7F6
:102420007AFFF3E7174800F06DF8FFF78BFF6420A1
:10243000FFF771FF0020FFF789FFFFF78BFFC0E771
:1024400010BD10B510480468012000F023F80120E9
:1024500000F03DF80D48E4B20F2101FB0402E4B2A4
:1024600021000B4800F04EF84FF47A70FFF753FF4D
:10247000EDE700000CED00E00400FA0514AE0000EA
:10248000C8AE000048AE000004ED00E07C04FF1F71
:10249000B0AD000010B5040064B2042C07DA0122CC
:1024A0000121174864B2205CFFF7CCFD0EE0042048
:1024B00004002000441E40B2002807D00122012160
:1024C0000F4864B2205CFFF7BDFDF2E710BD10B508
:1024D000040064B2042C05DA094864B2205CFFF7FA
:1024E0006AFE0CE0042004002000441E40B20028D4
:1024F00005D0034864B2205CFFF75DFEF4E710BD31
:102500009C0CFF1F0EB400B582B003A900910246D7
:1025100000AB0121034878440A3000F077FA06BC8A
:102520005DF810FB81890000012110F01F0291402D
:10253000DFF89C2240B2430942F8231070472DE98E
:10254000F84304000D0064B2002C08D0022C2CD0FB
:1025500018D3042C4FD03BD3052C5FD071E0DFF8AB
:102560007402006850F48060DFF8681208604FF46D
:1025700040716620FFF75CFE4FF440716720FFF763
:1025800057FE5EE0DFF84C02006850F40060DFF8B0
:10259000441208604FF440718120FFF749FE4FF468
:1025A00040718020FFF744FE4BE0DFF8280200680E
:1025B00050F48050DFF81C1208604FF44071632023
:1025C000FFF736FE4FF440716220FFF731FE38E02E
:1025D000DFF80002006850F40050DFF8F8110860DE
:1025E0004FF440718520FFF723FE4FF440718420A3
:1025F000FFF71EFE25E0DFF8E001006850F4806080
:10260000DFF8D41108604FF440719920FFF710FEF5
:102610004FF440719820FFF70BFE12E0DFF8B8018D
:10262000006850F40060DFF8B01108604FF44071AA
:102630008920FFF7FDFD4FF440718820FFF7F8FD7A
:10264000FFE7DFF8980164B250F82400C07810F07A
:10265000F300DFF8881164B251F82410C870DFF875
:102660007C0164B250F824008078DFF8701164B205
:1026700051F82410887064B2002C02D064B2012C8E
:1026800007D1DFF85C0100684FF47A714843814656
:1026900006E0DFF8500100684FF47A714843814644
:1026A0002801B9FBF0F00600B6B2B6F5005F02DB18
:1026B00041F6FF700600B9FBF5F0B6B2B0EB0610BC
:1026C0000700BFB2202F03DBDC214748FFF74FFE96
:1026D000424864B250F82400007810F0E0008046D0
:1026E000B6B2300A10F01F0050EA08003B4964B24D
:1026F00051F824100870394864B250F8240046702C
:10270000364864B250F82400807A10F0E000804629
:1027100017F01F0050EA0800304964B251F8241045
:1027200088722E4864B250F82400007C50F0880073
:102730002A4964B251F824100874284864B250F849
:102740002400C07850F00C00244964B251F82410E1
:10275000C870BDE8F183214A40B252F820201279B6
:102760009206F8D51D4A40B252F8202092F907206F
:102770000A707047194A40B252F8202012791206A6
:10278000F8D5164A40B252F82020D17170470100A6
:10279000124849B250F82100807D002801D0012064
:1027A00000E00020704710B504000C4864B250F8F7
:1027B0002400C07850F02000084964B251F8241079
:1027C000C87064B260002D3040B2FFF7ADFE10BD9E
:1027D00000E100E03480044028800440000CFF1F2A
:1027E0009810FF1FA010FF1F34AD000010B50400AB
:1027F00064B2082C0DDA002200217E4864B2205C0D
:10280000FFF720FC03217B4864B2205CFFF732FD18
:1028100014E0082004002000441E40B200280DD01F
:1028200000220021734864B2205CFFF70BFC0321F7
:10283000704864B2205CFFF71DFDECE710BD10B5D9
:1028400004006C4864B2205CFFF7D1FC002801D181
:10285000002000E0012010BD10B50400200040B2AF
:10286000FFF7EDFF00280AD10A20FFF754FD2000F2
:1028700040B2FFF7E4FF002801D1002000E0012072
:1028800010BD01B45C490978022929D09DF80010D7
:102890005A4A5B4B1B7802F813109DF80110574AF7
:1028A000574B1B7812EB4302517055490978491C6C
:1028B000534A117052490978142902DB0021504A09
:1028C00011704F49097808004E490978C0B2884212
:1028D00003D10221484A117002E00121464A1170D9
:1028E00001B07047010044480078002801D1002061
:1028F00028E04248434B1B7810F8130008703F480B
:10290000404B1B7810EB4300407848703D480078FE
:10291000401C3C4B18703B480078142802DB002018
:10292000384B187036480078020036480078D2B22A
:10293000904203D10020304B187002E001202E4B52
:1029400018700120704710B582B00020040064B2F6
:10295000082C4EDA200040B2FFF771FF002835D175
:10296000294864B2205C401C274964B26054264860
:1029700064B2205C02283ADB234864B2205C02285F
:1029800008D18DF8004000208DF801000098FFF775
:1029900078FF2CE01C4864B2205C332827DB1A48FF
:1029A00064B2205C33280CD18DF8004002208DF8F1
:1029B00001000098FFF765FF0220134964B26054DC
:1029C00015E00220104964B2605410E00E4864B271
:1029D000205C022807DB8DF8004001208DF8010003
:1029E0000098FFF74EFF0020074964B26054641C52
:1029F000ADE713BD900CFF1F7111FF1FA410FF1F47
:102A00007011FF1F6F11FF1FCC10FF1F2DE9F04F3A
:102A1000A1B08246002017461D4602910B900DF191
:102A2000440B6FF000490AE017F8011B0298D047E9
:102A30000290002800F0A3820B98401C0B9038787D
:102A400008B90B989DE22528EED10020059006904C
:102A50000790089009900A9001E040F0010017F8F3
:102A6000011F2029F9D023290DD02B2904D02D298D
:102A700006D030290AD00CE040F0020080B2EEE728
:102A800040F00400FAE740F00800F7E740F01000DB
:102A9000F4E72A290ED12968296051F8042B29600E
:102AA0000D92002A04D5514240F004000D9180B2ED
:102AB0007F1C11E000210D9109E00D99494505D0D9
:102AC00001EB810302EB430130390D917F1C3A7811
:102AD000A2F130010A29F0D339782E2903D04FF022
:102AE000FF310C911DE017F8011F2A2907D1296831
:102AF00029607F1C51F8042B29600C9211E0002101
:102B00000C9109E00C99494505D001EB810302EBDA
:102B1000430130390C917F1C3A78A2F130010A2927
:102B2000F0D3ADF838000FF6B820397800F076FD14
:102B300008B117F8010B8DF83A009DF83A006828A3
:102B400002BF39786829622005D06C2804BF387824
:102B50006C2803D171208DF83A007F1C11A80490D5
:102B600017F8014BB4F1250024D02038022840F298
:102B7000C680133800F0EC800B3800F05081401E06
:102B800000F02581401E022840F2B980001F00F0AD
:102B90001E81401F00F08480401E00F0D980401E3E
:102BA00029D0C01E0CD0801E00F0D280C01E00F0C4
:102BB000CF803EE10120059025208DF8440044E1BE
:102BC0002868286050F8044B28600394DDF83080B2
:102BD000B8F1000F04D5204600F02CFD804607E038
:102BE00042460021204600F041FD08B1A0EB040858
:102BF000CDF8188029E1296829604FF03C0851F888
:102C0000040B29600021CDE9000111A80390DDE942
:102C10000001049C11B908B90C9ACAB10206120F3E
:102C2000A0EB02123032A8F1010ED2B2F0463A2ADD
:102C3000A8BF273200090EF8042040EA01700909F4
:102C400008BF002804D0039A08EB04039A42E5D396
:102C500008EB04000390C8F13C010C9806918142F6
:102C600009DA401A08904FF6EF71BDF838000840B5
:102C7000ADF83800E9E0002840F1E7809DF8380021
:102C800000F01400102840F0E0800D98059A801A9A
:102C9000089A801A401A0128C0F2D7800890D4E020
:102CA0009DF83A0062281AD0682806D06A280CD00D
:102CB0006C281CD0712808D019E02868286050F8CA
:102CC000041B28600B980880BFE02868286050F833
:102CD000042B28600B98C117C2E90001B5E02868F1
:102CE000286050F8041B28600B980870ADE0286835
:102CF000286050F8041B28600B980860A5E028683D
:102D0000C01D20F007022A60D2E9000108322A60C3
:102D1000CDE90001002903D5012005902D200CE00C
:102D2000BDF83800810703D5012005902B2004E071
:102D3000C00704D50120059020208DF84400059996
:102D400011A808180390214600A800F0D7F97CE0EC
:102D50009DF83A206C2A0DD0712A18BF6A2A09D131
:102D60002868C01D20F007032B60D3E90001083359
:102D70002B6005E02968296051F8040B29600021C7
:102D8000CDE90001682A08BF80B207D0622A08BFD7
:102D9000C0B203D0742A18BF7A2A02D10021CDE92B
:102DA00000019DF83800000730D5DDE90001002959
:102DB00008BF00282AD044F02000782826D13020EF
:102DC0008DF844008BF80140022005901EE0294652
:102DD0009DF83A0000F0D8F8CDE90001002904DAA6
:102DE0000598411C05912D210EE0BDF838008107A2
:102DF00004D50598411C05912B2105E0C00705D598
:102E00000598411C0591202100F80B10059911A887
:102E100008180390214600A800F0EDF815E0012005
:102E200005902868286050F8041B28608DF844102D
:102E30000BE00120059025208DF84400002C04D0E3
:102E40000598411C059100F80B400D980599401A12
:102E50000899401A0699401A0999401A0799401A88
:102E60000A99A0EB01089DF8380040070FD42020F4
:102E70008DF84000002408E0012310AA00A9504664
:102E800000F097FB00287AD1641C4445F4DB059CD4
:102E900011AE0AE016F8011B0298D04702900028F4
:102EA0006DD00B98401C0B90641E002CF2D130208A
:102EB0008DF840000026089C08E0012310AA00A914
:102EC000504600F076FB002859D1761CA642F4DB70
:102ED000069C039E0AE016F8011B0298D047029058
:102EE00000284CD00B98401C0B90641E002CF2D193
:102EF00030208DF840000026099C07E0012310AA2D
:102F000000A9504600F055FBC8BB761CA642F5DB75
:102F100003980699079C0E1809E016F8011B029801
:102F2000D047029058B30B98401C0B90641E002CA5
:102F3000F3D130208DF8400000260A9C07E00123E1
:102F400010AA00A9504600F034FBC0B9761CA64276
:102F5000F5DB9DF8380040077FF571AD20208DF836
:102F60004000002400E0641C4445BFF668AD012326
:102F700010AA00A9504600F01CFB0028F3D04FF027
:102F8000FF3021B0BDE8F08F622826D068281DD020
:102F90006A2808D06C2827D0712804D0742823D040
:102FA0007A280CD020E00868C01D20F007000860D7
:102FB000D0E90023083008601946104670470A68B7
:102FC0000A6052F8040B0A60002170470A680A6020
:102FD00052F8040B0A6000B20BE00A680A6052F86B
:102FE000040B0A6040B204E00A680A6052F8040B5D
:102FF0000A60C11770472DE9FA4E05460A462F6947
:103000006F2A08BF082405D041F02000782814BF9B
:103010000A241024D5E900013C2681468A46642A08
:1030200018BF692A05D1002903DAD9F100096AEB32
:103030004A0ABAF1000F08BFB9F1000F0CD1286B92
:1030400050B9082C36D195F83800000732D5302019
:103050003B2687F83B002DE0E317484651462246C1
:1030600000F030FBA4FB0023A9EB02023032A6F1F2
:10307000010BD2B25E463A2A03DB9DF80030513B89
:103080009A180BF8072081465FEA010A08BFB9F1D8
:10309000000F03D0E868F1198842DDD3082C09D16C
:1030A00095F83800000705D5F05D302802D0761E6F
:1030B0003020F055C6F13C00A861F119E960296B98
:1030C000884208DA081A28624FF6EF71288F084004
:1030D0002887BDE8F38E00290ED595F8381001F049
:1030E0001401102908D1696B6A69891A2A6A891A38
:1030F000081A0128A8BF2862BDE8F38E2DE9F34F16
:103100008BB0D0E90089006B01AF002848BF0620D2
:1031100005D404BF41F02000672802D101200B999B
:10312000086340F2FF720B984168C1F30A50904265
:1031300020D1080302BF0B98006800280AD10B9920
:10314000032088619DF8300061381A2858D30FF2A7
:10315000A44109E00B99032088619DF83000613893
:103160001A284AD30FF284410B98C068032200F05A
:1031700021FB00E1012807DA0B9800F056FB01283B
:1031800002DB00230026EDE00B9A526840F2FE318C
:1031900061F31E520B994A6040F2FE31461A4046D6
:1031A00049460022002300F061FB38BF89F0004946
:1031B00036B247F2975070434949DFF828B190FB87
:1031C000F1F636B2C6F107079246012F1BDBF8076E
:1031D00007D552465B464046494600F05FFB8046B5
:1031E00089467F105046594652465B4600F056FBD2
:1031F00082468B46002FEAD126E00FF2EC31B3E78E
:103200000FF2EC31B0E77F420024374D12E0F807AF
:1032100007D552465B462046294600F03FFB044650
:103220000D467F105046594652465B4600F036FB2D
:1032300082468B46002FEAD14046494622462B461D
:1032400000F0FEFB804689469DF8300040F02005E6
:10325000662D0CBF06F10A0006200B99096B471872
:10326000142FA8BF132730208DF804000DF105049A
:10327000DFF878B0012F3BDB4046494600F004FD03
:10328000014604F1080204234FF00A0CB1FBFCFCD8
:103290000CEB8C04A1EB4401303102F8011D0A2132
:1032A000BCFBF1FE0EEB8E04ACEB440430347146F3
:1032B00002F8014D5B1EE7D1083F02F10804012F1F
:1032C000D8DB00F001FD02460B464046494600F0BF
:1032D00009FD00225B4600F0E1FA80468946CBE713
:1032E000A0860100000024400000F03F84D79741F1
:1032F0000DF10500201A0DF1050702E0401E761EB3
:103300007F1C39783029F9D0662D02D136B2711C74
:1033100003E0652D0CBF012100210B9A126B8B1865
:103320001BB29842B8BF03461BB219001AD481429F
:1033300004DAC85D3528A8BF392000DA3020CA1960
:10334000521E00E05B1E12F80159491E8542F9D059
:10335000392802D1C85D401CC855002902D57F1EFE
:103360005B1C761C36B29DF830100B9800961BB291
:103370003A4600F003F80DB0BDE8F08F2DE9F047B4
:1033800086B006468A4690461D4600F088FD406A93
:10339000376B90F80090012D02DA01250FF25828C2
:1033A0004AF02000BDF93840662808BF641C13D0DD
:1033B000672840F0888014F1040F73DBBC4271DA97
:1033C00096F83800641C000702D4BD42B8BF2F46EF
:1033D00024B23F1B48BF0027F068B16924B2012C1A
:1033E00021DA30234A1C0B54012F03DA96F83810E7
:1033F000090702D502F80090521CB261E742B8BF3B
:103400007C4224B26142E7197162AF42B8BF3D46C7
:103410002DB2F5612A46B3694146181800F0CAF981
:10342000781BB062AEE00818A54216DA2A4641467B
:1034300000F0C0F9B1696918B161601B7062012FB9
:1034400003DA96F83800000705D5F06801F8009017
:10345000F069401CF061B76294E02246414600F0FA
:10346000A9F9B06920182D1B012F03DA96F838103E
:10347000090703D5F16800F80190401C2DB2B06136
:10348000AF42B8BF3D46F068B3692DB22A4604EB9F
:103490000801181800F08EF9B0692818B061781B7F
:1034A00070626FE0BD4204DA96F83810090758BF21
:1034B0002F467F1E48BF0027BAF1670F0CBF4FF0A1
:1034C000650A4FF0450AB169F06818F8013B0B54E2
:1034D0004A1C012F05DA96F83810090758BFB26167
:1034E00015D502F80090531CB361012F0FDB6D1E40
:1034F0002DB2AF42B8BF3D462DB22A4641461818FC
:1035000000F058F9B0692818B061781B7062F06853
:10351000B16901EB0008200008F801AB03D42B20AF
:1035200008F8010B03E02D2108F8011B6442002577
:1035300002AF08E00A2200A800F0CAFC019807F8D0
:10354000010B6D1C009C21B20129F3DA022D06DA71
:103550004AF02000652804BF302008F8010B4DB95F
:10356000302008F8010B07E06D1E02A8285C3030FF
:1035700008F8010B012DF7DAF068B1690818A8EB1B
:103580000000F06196F8380000F0140010280DD10A
:103590007069B1690818716A0818F1690818B16A88
:1035A0000818716B8842BCBF081A306206B0BDE8CB
:1035B000F087F8B504460D4616461F46002004E085
:1035C000E86A401CE8627F1E002047B116F8011B24
:1035D000A868A047A8600028F2D14FF0FF30F2BDE4
:1035E000686A6C747A4C00006E616E004E414E0049
:1035F000696E6600494E4600300050F8041B61B108
:1036000050F8042BD30744BFA9F101039A180023F3
:1036100042F8043B091FFAD1EFE770470278C9B2BC
:103620008A421AB11CBF10F8012FF9E718BF002019
:103630007047000000F10103810704D010F8011B5E
:1036400089B18107FAD10268B2F10131914311F0D9
:10365000803F04BF50F8042FF6E710F8011B11B1AA
:1036600010F8011BFBE7C01A70470000C9B28307BE
:1036700006D0521E22D310F8013B9942F7D11FE029
:10368000083A13D302F1040241EA012141EA01415F
:1036900050F8043B121F21BF4B40A3F1013C2CEA20
:1036A000030C1CF0803FF3D0C9B2001F083210F8A1
:1036B000013B521E28BF91EA030FF8D818BF012022
:1036C000401E70471B4213D1094236D12AB18446AD
:1036D000B0FBF2F002FB10C2704700F001BCFCD35B
:1036E0000022002370470B000200002100207047D9
:1036F000904271EB030CF6D370B5B1FA81F4B3FAD2
:1037000083F52C1BA340C4F1200532FA05F63343A0
:10371000A2405FF00046E64002E05B085FEA32024A
:10372000841A71EB030524BF204629467641F4D361
:1037300002000B003000002170BD012ACFD970B506
:10374000140C20D0B1FA81F4B2FA82F5C4F120044D
:103750006419B4F12006D6D3B2405FF00044F440BF
:10376000002502E052085FEA3303C61A71EB020E2D
:1037700024BF3046714664416D41F3D302000B0013
:103780002000290070BD0C46B1FBF2F102FB11458F
:103790002D0445EA1045B5FBF2F402FB145580B246
:1037A00040EA0545B5FBF2F002FB105240EA044046
:1037B00070BD000062B38B0708D0521E11F8013BA8
:1037C00000F8013B00F024808B07F6D1830740F01E
:1037D000208000BF103A07D330B4B1E83810103A57
:1037E000A0E83810F9D230BC530724BFB1E8081064
:1037F000A0E8081044BF51F8043B40F8043BD2074E
:1038000024BF31F8022B20F8022B44BF0B78037041
:103810007047083A07D3B1E80810083A40F8043B6B
:1038200040F804CBF7D25307E4E730B4436803F021
:10383000004201211B031B0B436004BF0368002BE4
:1038400008D10DE00368DD0F45EA440444605B00E5
:103850000360491E4468E302F4D523031B0B436055
:1038600043681A434260084630BC70474FF4001C5E
:103870001CEB410F94BF1CEB430F09E041EA030C22
:1038800050EA4C0C52EA0C0C03D2994208BF904209
:10389000704714BF8B42824270470000B0B581EA86
:1038A000030C0CF0004C40F2FF7515EA11541DBFDB
:1038B00015EA1357AC42AF4239E0E41923EA455305
:1038C00043F48013C90241F0004141EA505EC7024F
:1038D0001100A7FB020200284FF00000EEFB0120C0
:1038E0004FF00001E3FB072118BF42F0010240182E
:1038F00000214941E3FB0E01A4F580640F0302D2CD
:1039000052004041494154F101046CDD470872F115
:10391000004250F1000051EB0451A1F580115CBF51
:1039200041EA0C01B0BD4CEA05510020B0BD05EAEA
:103930001357AC4214BFAF4241E050EA410E1CBFE6
:1039400052EA430E02E061460020B0BD24423C44EE
:103950001BD15FEA070EF6D0090302BF0146002023
:10396000AEF1140EB1FA81F7AEEB070401FA07FECF
:103970000C37C7F1200100FA07F7C8404EEA000EE5
:1039800023EA455343F48013A2E733F00043B3FA2C
:1039900083F704BFB2FA82FE77440B3FE41BB7F112
:1039A000200E2FBF02FA0EF3BB40C7F1200E22FA01
:1039B0000EFE38BF43EA0E03BA40641C82E750EAA9
:1039C000410E14BF52EA430E6FF000014FF400178E
:1039D00017EB430F8ABF194617EB410FB5E74CEAC7
:1039E00005510020B0BDD4F10104B4F120070FDA75
:1039F000C4F12007520828BF42F0010210FA07F56F
:103A000001FA07F7E1BF2A43E0403843E1400FE005
:103A1000352C98DCC7F1200452EA400220FA07F264
:103A200018BF42F0010231FA07F0A1400A43002119
:103A300072F1004250F1000051EB0C01B0BD0000EA
:103A4000F0B540F2FF7581EA030C0CF0004C15EA6A
:103A500011541DBF15EA1357AC42AF42E5E0BC411B
:103A6000C1F31301C3F31303801A994143F4801384
:103A700004D2641E4000494180185941C90241EAFC
:103A80005051B1FBF3F603FB1611A2FB0675D7EB01
:103A9000C020A94102D2761E80185941C90241EACC
:103AA0005051B1FBF3FE03FB1E11A2FB0E75D7EBC9
:103AB000C020A94103D2AEF1010E801859418902FC
:103AC00041EA9051760546EA8E2EB1FBF3F603FBF0
:103AD0001611A2FB0675D7EB8020A94102D2761EF3
:103AE00080185941C90241EA50514EEA060EB1FB15
:103AF000F3F603FB1611A2FB0675D7EBC020A94114
:103B000002D2761E80185941C90241EA5051B1FBD8
:103B1000F3F703FB1711A2FB0735D3EBC020A94134
:103B200067F100070CBF004247F0010766F3D52795
:103B30004FEA1E31B80814F5806412DDBD0775F137
:103B4000004250EB0E5051EB045111F5801F5CBF49
:103B500041EA0C01F0BD4CF07F6141F0E0410020F2
:103B6000F0BDBD076D0840EA0E5041F48011D4F15C
:103B70000104B4F120060ADAC4F120060200E04094
:103B800001FA06F3E1401843B24015430EE0342C2D
:103B900013DCC6F1200445EA40056D0820FA06F260
:103BA000154321FA06F0A1400D43002175F10042B2
:103BB00050F1000051EB0C01F0BD00205FEA0C0158
:103BC000F0BDCFB992185B41B3FA83F704BFB2FAE4
:103BD00082F6BF190B3FB7F120062FBF02FA06F39A
:103BE000BB40C7F1200622FA06F638BF3343BA407D
:103BF0001CB1E419641E33E77F4231F00041B1FA91
:103C000081F404BFB0FA80F6A4190B3CB4F120068D
:103C10002FBF00FA06F1A140C4F1200620FA06F6F3
:103C200038BF3143A0403C1B1AE7AC421ABF05EA3B
:103C30001357AF4212E050EA41061CBF52EA430656
:103C4000BFE750EA4107304661461CBF41EA0551D3
:103C5000F0BD52EA430C08BFC143F0BD00204FF451
:103C6000001616EB410F98BF16EB430F08BF16EB7B
:103C7000410F24BFC14305E016EB430F0CBF614663
:103C80004CEA0551F0BD0000400D40EAC12049005A
:103C900080F00D8040F00040490DA1F58061491C85
:103CA00005D4D1F11F0154BFC840C01770474FF071
:103CB00000007047010040F10980F446404200F0E6
:103CC00005F851F000416047010000BF09D0B0FA8B
:103CD00080F18840C91CC1F58461090501EBD02140
:103CE0004005704770B44FF0004591EA030F44BFA0
:103CF0006B4000F001B900BF841A71EB030604D2D7
:103D00006E40001BB141121973414FF4001C1CEBB3
:103D1000410F34BF7CEB430684E00C0DA4EB13563B
:103D2000362E7DDC012E43DC45EAC32343EA5253A1
:103D300012BFD20292025B08240545EAC12141EA82
:103D40005051D2EBC020994125D407D1B0FA80F66A
:103D500010FA06F164D00020203608E0B1FA81F6AE
:103D6000B140C6F1200220FA02F21143B0404FEAFE
:103D7000F474B4EB465434F001064FEA74040AD8E4
:103D8000D6F50016760D04F00044F04061FA06F214
:103D90005040F1404840C00A40EA415021F0004103
:103DA00028BF5FEA500550F1000044EBD12137E015
:103DB00045EAC323DB0A45EAC121C90AB6F1200559
:103DC0000EDD42EA0242120CC5F1200603FA06F6A5
:103DD000EB4042EA06056D42984161F100010DE0B9
:103DE00062FA06F5F240554063FA06FC82EA0C02DC
:103DF000F3405A406D42904161EB030111F4801F82
:103E000005D1641E620502D06D004041494121F494
:103E10008011430875F1004350F1000041EB04515B
:103E200070BC70471CEB410F15D223F0004352EADF
:103E300043060BD04FEA4C0CBCEB410F04D80C0DE1
:103E4000661E342EB7DDEBE7801A994150EA410631
:103E500008BF0021E4E708BF1CEB430F28BF6FF049
:103E60000001DDE780B5134800F0B0F80FF248011B
:103E7000016041608160C1600161416181610FF257
:103E80003C0242628162C162016341630FF230020F
:103E900082630FF23402C2630164416401BD10B554
:103EA000044800F093F80446206808B9FFF7DAFFE9
:103EB000204610BD7811FF1F000000002E000000FA
:103EC00066616C7365000000747275650000000027
:103ED00091FBF2F303FB1211C0E9003170470000BF
:103EE0007047000070B44FF0004591EA030C44BFE6
:103EF0006B40FFF701BF00BF841A71EB030603D2CA
:103F0000001BB141121973414FF4001C1CEB410F0F
:103F100034BF7CEB430443E00C0DA4EB1356352E69
:103F200050DC45EAC323DB0A45EAC121C912B6F1D8
:103F300020050DDD63FA05F6EB4086EA0305124223
:103F400018BF45F00105C01851F100010CD213E073
:103F500062FA06F5F2405540F3415A40B340F3404F
:103F60005A408018594107D349085FEA30005FEA98
:103F7000350528BF45F0010501F58011420875F1AE
:103F8000004250F1000041EB045170BC4FF4001CA2
:103F90001CEB410F38BF70470020090D0905704721
:103FA0001CEB410F10D252EA43060BD0BCEB410F81
:103FB00005D80C0DAB43661E342EB5DD02E0AB43D5
:103FC0008018594170BC704770BC70477047000042
:103FD000DFF800F0890EFF1F10B582B0002004004A
:103FE000E4B20A2C2BDA00A9200040B200F054F809
:103FF0000098DFF8DC14E4B2142202FB041108601C
:104000000098DFF8CC14E4B2142202FB04114860DB
:10401000DFF8BC04E4B2142101FB0400C068DFF83F
:10402000B014E4B2142202FB04118968884204D25D
:104030004021DFF8A004FEF79AF9641CD0E713BD15
:1040400040B2032806DADFF8902440B252F820206C
:10405000117012E040B2052806DADFF87C2440B285
:1040600052F82020118008E040B20A2805DADFF873
:10407000682440B252F820201160DFF8542440B286
:10408000142310FB03221160DFF8442440B21423F0
:1040900010FB03225160704740B2032807DADFF8B3
:1040A000382440B252F8202012780A6014E040B25E
:1040B000052807DADFF8202440B252F820201288C1
:1040C0000A6009E040B20A2806DADFF80C2440B2A0
:1040D00052F8202012680A60704710B50400DFF81B
:1040E000FC0300780A2804DB7421DFF8E803FEF7FC
:1040F0003EF964B2042C08D0C0F0D980062C76D0EA
:104100003ED3072C00F0A380D1E0DFF8C403DFF832
:10411000CC130978142202FB01000068DFF8B01309
:10412000DFF8B8231278142303FB0211C968884210
:1041300013D2DFF89C03DFF8A4130978142202FBE2
:1041400001000068401CDFF88813DFF89023127824
:10415000142303FB0211086011E0DFF87403DFF899
:104160007C130978142202FB01008068DFF86013D9
:10417000DFF868231278142303FB0211086096E02D
:10418000DFF84C03DFF854130978142202FB010016
:104190008068DFF83C13DFF844231278142303FB14
:1041A00002110968884213D2DFF82403DFF82C13C8
:1041B0000978142202FB01000068401EDFF810138A
:1041C000DFF818231278142303FB021108600DE0B6
:1041D000BF48C2490978142202FB0100C068BC49EB
:1041E000BE4A1278142303FB021108605FE0B8484E
:1041F000BA490978142202FB0100C068B449B74AE1
:104200001278142303FB02110968401A0B280FD3FC
:10421000AF48B2490978142202FB010000680A3055
:10422000AB49AE4A1278142303FB021108600DE07B
:10423000A748AA490978142202FB01008068A44912
:10424000A64A1278142303FB021108602FE0A0484D
:10425000A2490978142202FB010000689C499F4A88
:104260001278142303FB02118968401A0B280FD31C
:1042700097489A490978142202FB010000680A381D
:104280009349964A1278142303FB021108600DE04B
:104290008F4892490978142202FB0100C0688C49BA
:1042A0008E4A1278142303FB02110860FFE78B4843
:1042B00000788B490870894800788A4908708748D7
:1042C0000078894908708548007800F092F810BDA0
:1042D00038B50400814800780A2803DBB5217D4801
:1042E000FEF745F87D48057864B2002C05D0022C15
:1042F0001DD00FD3032C27D033E078480078401C22
:1043000076490870754800780A2802DB0020734956
:10431000087027E071480078401E704908706F48A7
:1043200000780A2802DB09206C4908701AE06B4803
:104330000078C01C69490870684800780A2802DBC8
:104340000020664908700DE064480078C01E63498B
:104350000870624800780A2802DB09205F4908706B
:1043600000E007E02800C0B200F043F85B480078A6
:1043700000F03FF831BD80B5584800780A2803DBCB
:10438000EB215448FDF7F3FF5148544909781422B2
:1043900002FB010000684E49504A1278142303FBC7
:1043A00002114968884203D04C48007800F09EF81A
:1043B0004A48007800F01DF801BD80B547480078F4
:1043C0000A2803DBF9214348FDF7D1FF4048434960
:1043D0000978142202FB010040683D493F4A1278E7
:1043E000142303FB021108603C48007800F001F838
:1043F00001BDF0B583B004000025384800780A28D4
:1044000002DAE4B20B2C04DB4FF493713148FDF770
:10441000AEFFE4B20A2C03D10920050000200400FD
:104420002E480078E4B284421BD12948E4B214211A
:1044300001FB040000682649E4B2142202FB0411C7
:104440004968884206D14FF6FF7007004FF6E070CA
:1044500006001FE04FF4FC6007004FF6E070060016
:1044600018E01B48E4B2142101FB0400006818495D
:10447000E4B2142202FB04114968884205D14FF6C8
:10448000FF7007000020060004E04FF4FC60070006
:10449000002006000E48E4B2142101FB040000696C
:1044A0000190B6B200963B009BB205220848E4B2E8
:1044B000142101FB04000168019801F05CFC641CFC
:1044C0002800451EC0B20028AAD1F7BD0000000098
:1044D000C80CFF1FB0AB0000A00CFF1F7411FF1F22
:1044E0005311FF1F5511FF1F5711FF1F70B5040017
:1044F000DFF8E40700780A2802DAE4B20B2C05DBC7
:104500004FF4B271DFF8D407FDF731FF0025E4B2B4
:104510000A2C03D10920050000200400DFF8C007A1
:10452000E4B2142101FB040040680600DFF8B00784
:10453000E4B2142101FB04000168200040B2FFF73F
:104540007FFDDFF89C07E4B2142101FB0400006842
:10455000DFF890170870DFF88807E4B2142101FB38
:1045600004000068DFF880170870DFF88007007823
:10457000002840F0A181DFF87807007801280ED1EB
:10458000DFF85C07E4B2142101FB04000068DFF8E7
:10459000641708700120DFF86017087086E1DFF803
:1045A0005007007802280ED1DFF83407E4B2142156
:1045B00001FB04000068DFF8441708700120DFF8F1
:1045C0004017087072E1DFF82807007803280ED141
:1045D000DFF80C07E4B2142101FB04000068DFF8E7
:1045E000241708800120DFF8201708705EE1DFF84B
:1045F0000007007804280ED1DFF8E406E4B21421A5
:1046000001FB04000068DFF8041708800120DFF8D0
:10461000001708704AE1DFF8D806007805280ED1A7
:10462000DFF8BC06E4B2142101FB04000068DFF8E7
:10463000E41608600120DFF8E016087036E1DFF8C4
:10464000B006007806280ED1DFF89406E4B21421F3
:1046500001FB04000068DFF8C41608600120DFF8E1
:10466000C016087022E1DFF88806007809280ED10C
:10467000DFF86C06E4B2142101FB04000068DFF8E7
:10468000AC1C08600120DFF8A81C08700EE1DFF800
:1046900060060078082840F00981DFF85C060078A1
:1046A000012805D0DFF88C0C0078DFF84816087078
:1046B000DFF84C060078012805D0DFF87C0C007884
:1046C000DFF838160870DFF840060078012805D0BA
:1046D000DFF8680C0088DFF82C160880DFF8300659
:1046E0000078012805D0DFF8580C0088DFF81C1688
:1046F0000880DFF824060078012805D0DFF8440C94
:104700000068DFF810160860DFF81406007801284A
:1047100005D0DFF8340C0068DFF800160860DFF819
:10472000100C0078012805D0DFF8200C0068DFF8B5
:10473000FC1B0860DFF8B4050078012829D0DFF8F9
:10474000100C0078DFF80C1C0870DFF80C0C0078F7
:10475000DFF8081C0870DFF8080C0088DFF8041C7C
:104760000880DFF8040C0088DFF8001C0880DFF800
:10477000000C0068DFF8FC1B0860DFF8FC0B006829
:10478000DFF8F81B0860DFF8F80B0068DFF8F41BAF
:104790000860DFF858050078022829D0DFF8E80B18
:1047A0000078DFF8E81B0870DFF8E40B0078DFF82A
:1047B000E41B0870DFF8E00B0088DFF8E01B0880DE
:1047C000DFF8DC0B0088DFF8DC1B0880DFF8D80B93
:1047D0000068DFF8D81B0860DFF8D40B0068DFF84A
:1047E000D41B0860DFF8D00B0068DFF8D01B08602E
:1047F000DFF8F8040078032829D0DFF8C40B00782C
:10480000DFF8C01B0870DFF8C00B0078DFF8BC1BB6
:104810000870DFF8BC0B0088DFF8B81B0880DFF8F1
:10482000B80B0068DFF8B41B0880DFF8B40B006831
:10483000DFF8B01B0860DFF8B00B0068DFF8AC1BD6
:104840000860DFF8AC0B0068DFF8A81B0860DFF831
:104850009C040078042829D0DFF89C0B0078DFF84E
:104860009C1B0870DFF8980B0088DFF8981B087015
:10487000DFF8940B0088DFF8941B0880DFF8900BBA
:104880000068DFF8901B08805FF4FC200068DFF808
:10489000881B0860DFF8840B0068DFF8841B086061
:1048A000DFF8800B0068DFF8801B08600020DFF86D
:1048B0004014087000F0C5BEDFF83004007801280D
:1048C00040F08C81DFF82804007801280ED1DFF851
:1048D0001004E4B2142101FB04000068DFF8741A2C
:1048E00008700120DFF81014087072E1DFF800048E
:1048F000007802280ED1DFF8E803E4B2142101FBAE
:1049000004000068DFF8541A08700120DFF8F01383
:1049100008705EE1DFF8D803007803280ED1DFF8D5
:10492000C003E4B2142101FB04000068DFF8341A6C
:1049300008800120DFF8D01308704AE1DFF8B003E7
:10494000007804280ED1DFF89803E4B2142101FBAB
:1049500004000068DFF8141A08800120DFF8B013A3
:10496000087036E1DFF88803007805280ED1DFF8FB
:104970007003E4B2142101FB04000068DFF8F419AD
:1049800008600120DFF89013087022E1DFF860036F
:10499000007806280DD1D248E4B2142101FB0400AE
:1049A0000068DFF8D81908600120DFF87413087078
:1049B0000FE1CF48007809280DD1C948E4B214218D
:1049C00001FB04000068DFF8BC1908600120DFF873
:1049D00060190870FDE0C6480078082840F0F980AA
:1049E000C2480078002823D0DFF848090078C14980
:1049F0000870DFF844090078C0490870DFF83C0906
:104A00000088C0490880DFF838090088BF4908805D
:104A1000DFF830090068BF490860DFF82C0900683A
:104A2000BE490860DFF824090068DFF80019086053
:104A3000B1480078012805D0DFF814090078DFF8C4
:104A400014190870AE480078012805D0DFF808096D
:104A50000078DFF808190870AB480078012805D005
:104A6000DFF8FC080088DFF8FC180880A848007808
:104A7000012805D0DFF8F0080088DFF8F01808807A
:104A8000A5480078012805D0DFF8E4080068DFF8C1
:104A9000E4180860A2480078012805D0DFF8D8089B
:104AA0000068DFF8D8180860DFF88408007801286B
:104AB00005D0DFF8CC080068DFF8C81808608B481C
:104AC0000078022829D0DFF8C0080078DFF8BC1889
:104AD0000870DFF8BC080078DFF8B8180870DFF855
:104AE000B8080088DFF8B4180880DFF8B408008838
:104AF000DFF8B0180880DFF8B0080068DFF8AC18FD
:104B00000860DFF8AC080068DFF8A8180860DFF874
:104B1000A8080068DFF8A418086074480078032823
:104B200029D0DFF89C080078DFF898180870DFF8C3
:104B300098080078DFF894180870DFF89408008867
:104B4000DFF890180880DFF890080068DFF88C180C
:104B50000880DFF88C080068DFF888180860DFF844
:104B600088080068DFF884180860DFF884080068A7
:104B7000DFF8801808605D480078042829D0DFF845
:104B800078080078DFF874180870DFF87408008877
:104B9000DFF870180870DFF870080088DFF86C180C
:104BA0000880DFF86C080068DFF8681808805FF498
:104BB000FC200068DFF860180860DFF86008006813
:104BC000DFF85C180860DFF85C080068DFF8581848
:104BD000086000204649087000F033BD4348007863
:104BE000022840F0B3814248007801280CD13C48AB
:104BF000E4B2142101FB04000068DFF8901708708C
:104C000001203D4908709CE13948007802280CD108
:104C10003348E4B2142101FB04000068DFF8741784
:104C200008700120364908708BE13148007803286C
:104C30000CD12B48E4B2142101FB04000068DFF81A
:104C40005C1708800120304908707AE12848007814
:104C500004280CD12248E4B2142101FB04000068AE
:104C6000DFF84017088001202949087069E12048D1
:104C7000007805280CD11A48E4B2142101FB040085
:104C80000068DFF82817086001202349087058E100
:104C90001748007806280CD11148E4B2142101FB12
:104CA00004000068DFF80C17086001201C49087038
:104CB00047E10F480078092834D10948E4B21421AB
:104CC00001FB04000068DFF8F41608600120DFF83B
:104CD0006016087035E100BF7411FF1FB0AB000013
:104CE000C80CFF1F5611FF1F5411FF1F2004FF1F88
:104CF0005711FF1F5F11FF1F5811FF1F6011FF1F8A
:104D00005911FF1F2811FF1F5A11FF1F2A11FF1FE2
:104D10005B11FF1FF80FFF1F5C11FF1FFC0FFF1F30
:104D20005D11FF1FDFF8580B0078082840F009815B
:104D3000DFF8400B0078002829D0DFF8F80500786C
:104D4000DFF8401B0870DFF8F0050078DFF8381B4B
:104D50000870DFF8E8050088DFF8301B0880DFF80E
:104D6000E0050088DFF8281B0880DFF8D805006818
:104D7000DFF8201B0860DFF8D0050068DFF8181B9B
:104D80000860DFF8C8050068DFF8A0150860DFF8E4
:104D9000E40A0078012829D0DFF8B4050078DFF8AC
:104DA000B4150870DFF8B0050078DFF8B0150870AA
:104DB000DFF8AC050088DFF8AC150880DFF8A8053F
:104DC0000088DFF8A8150880DFF8A4050068DFF880
:104DD000A4150860DFF8A0050068DFF8A0150860DA
:104DE000DFF89C050068DFF89C150860DFF8AC0A66
:104DF0000078012805D0DFF890050078DFF88C15E1
:104E00000870DFF89C0A0078012805D0DFF88005DB
:104E10000078DFF880150870DFF8880A007801282C
:104E200005D0DFF874050088DFF870150880DFF81A
:104E3000780A0078012805D0DFF864050088DFF8DB
:104E400064150880DFF8300A0078012805D0DFF803
:104E500058050068DFF854150860DFF8200A00786C
:104E6000012805D0DFF848050068DFF8481508601C
:104E7000DFF8BC040078012805D0DFF83C050068A5
:104E8000DFF838150860DFF8EC090078032829D02E
:104E9000DFF82C050078DFF82C150870DFF82805FE
:104EA0000078DFF828150870DFF824050088DFF89F
:104EB00024150880DFF820050068DFF82015088039
:104EC000DFF81C050068DFF81C150860DFF818051E
:104ED0000068DFF818150860DFF814050068DFF8CF
:104EE00014150860DFF88C090078042829D0DFF851
:104EF00008050078DFF804150870DFF8040500885D
:104F0000DFF800150870DFF800050088DFF8FC14F2
:104F10000880DFF8FC040068DFF8F81408805FF40C
:104F2000FC200068DFF8F0140860DFF8F004006887
:104F3000DFF8EC140860DFF8EC040068DFF8E81430
:104F400008600020DFF8381908707AE3DFF82409D8
:104F50000078032840F05F81DFF8240900780128F9
:104F60000ED1DFF84809E4B2142101FB0400006807
:104F7000DFF8501408700120DFF82019087045E1AF
:104F8000DFF8FC08007802280ED1DFF82009E4B22F
:104F9000142101FB04000068DFF8301408700120C0
:104FA000DFF8FC18087031E1DFF8D4080078032836
:104FB0000ED1DFF8F808E4B2142101FB0400006808
:104FC000DFF8101408800120DFF8D81808701DE100
:104FD000DFF8AC08007804280ED1DFF8D008E4B27E
:104FE000142101FB04000068DFF8F01308800120A1
:104FF000DFF8B418087009E1DFF8840800780528A4
:105000000ED1DFF8A808E4B2142101FB0400006807
:10501000DFF8D01308600120DFF85C180870F5E0B5
:10502000DFF85C08007806280ED1DFF88008E4B2CB
:10503000142101FB04000068DFF8B01308600120B0
:10504000DFF838180870E1E0DFF834080078092844
:105050000DD1DFF85808E4B2142101FB0400006808
:10506000DFF8901308600120B1490870CEE0DFF846
:1050700010080078082840F0C980DFF8F8070078A9
:10508000002821D0AB480078DFF8F8170870AA484C
:105090000078DFF8F4170870A8480088DFF8EC17EC
:1050A0000880A7480088DFF8E8170880A54800684E
:1050B000DFF8E0170860A4480068DFF8DC17086034
:1050C000A248006899490860DFF8A807007801281D
:1050D0001BD09F4800789F4908709F4800789F49DF
:1050E00008709F4800889F4908809F4800889F4912
:1050F00008809F4800689F4908609F4800689F4952
:1051000008609F4800689F490860DFF868070078DA
:1051100002281BD09C4800789C4908709C48007865
:105120009C4908709C4800889C4908809C480088DD
:105130009C4908809C4800689C4908609C4800681D
:105140009C4908609C4800689C490860DFF84C074F
:105150000078012803D09A4800789A490870DFF84F
:1051600040070078012803D09748007897490870D5
:10517000DFF830070078012803D09548008895496A
:105180000880DFF824070078012803D092480068DF
:1051900092490880DFF8E0060078012803D09048A3
:1051A000006890490860DFF8D4060078012803D031
:1051B0008D4800688D4908605D480078012803D05B
:1051C0008B4800688B490860DFF8A806007804283F
:1051D0001CD0894800788949087089480088894925
:1051E0000870894800888949088089480068894989
:1051F00008805FF4FC2000688749086087480068E1
:105200008749086087480068874908600020DFF800
:105210007016087015E2DFF85C060078042840F08C
:105220001082DFF85C06007801280DD1DFF87C06DB
:10523000E4B2142101FB04000068704908700120E9
:10524000DFF858160870F9E1DFF834060078022814
:105250000DD1DFF85806E4B2142101FB0400006808
:10526000684908700120DFF838160870E6E1DFF8B9
:105270001006007803280DD1DFF83006E4B21421BF
:1052800001FB04000068614908800120DFF8141662
:105290000870D3E1DFF8E805007804280DD1DFF8C5
:1052A0000C06E4B2142101FB04000068594908808F
:1052B0000120DFF8F4150870C0E1DFF8C4050078BC
:1052C00005280DD1DFF8E405E4B2142101FB040048
:1052D0000068514908600120DFF89C150870ADE1B5
:1052E000DFF89C05007806280DD1DFF8C005E4B290
:1052F000142101FB04000068494908600120DFF81F
:105300007C1508709AE1DFF878050078092840F0EC
:105310008D80DFF89805E4B2142101FB04000068D9
:105320004149086001200249087087E10010FF1F11
:105330005E11FF1F04F8070008F807000CF80700CB
:1053400014F807001CF807002CF8070020E00700FD
:105350003CF807006111FF1F40F807006211FF1FB2
:1053600044F807002C11FF1F4CF807002E11FF1FF7
:1053700054F807000410FF1F64F807000810FF1F0F
:1053800030E007000C10FF1F74F807006311FF1FC7
:1053900078F807006411FF1F7CF807003011FF1F29
:1053A00084F807003211FF1F8CF807001010FF1F50
:1053B0009CF807001410FF1F40E007001810FF1FA3
:1053C000ACF807006511FF1FB0F807006611FF1F5A
:1053D000B4F807003411FF1FBCF807003611FF1F97
:1053E000C4F807001C10FF1FD4F807002010FF1F8F
:1053F00050E007002410FF1FE4F807006711FF1FAB
:10540000E8F807006811FF1FECF807003811FF1FCC
:10541000F4F807003A11FF1F2810FF1F10E00700E3
:105420002C10FF1F60E007003010FF1FDFF8500452
:105430000078082840F00281DFF83804007800285E
:1054400029D0DFF86C040078DFF838140870DFF832
:1054500064040078DFF830140870DFF85C0400881A
:10546000DFF828140880DFF854040088DFF82014DF
:105470000880DFF84C040068DFF818140860DFF8D3
:1054800044040068DFF810140860DFF83C0400688A
:10549000DFF838140860DFF8DC030078012829D031
:1054A000DFF82C040078DFF82C140870DFF82804EB
:1054B0000078DFF828140870DFF824040088DFF88B
:1054C00024140880DFF820040088DFF82014088006
:1054D000DFF81C040068DFF81C140860DFF818040B
:1054E0000068DFF818140860DFF814040068DFF8BB
:1054F00014140860DFF87C030078022829D0DFF854
:1055000008040078DFF804140870DFF80404007859
:10551000DFF800140870DFF800040088DFF8FC13DF
:105520000880DFF8FC030088DFF8F8130880DFF854
:10553000F8030068DFF8F4130860DFF8F40300688C
:10554000DFF8F0130860DFF8F0030068DFF8EC1311
:105550000860C8480078032829D0DFF8E403007801
:10556000DFF8E0130870DFF8E0030078DFF8DC1301
:105570000870DFF8DC030088DFF8D8130880DFF854
:10558000D8030068DFF8D4130880DFF8D40300687C
:10559000DFF8D0130860DFF8D0030068DFF8CC1321
:1055A0000860DFF8CC030068DFF8C8130860BB4868
:1055B0000078012805D0DFF8C0030078DFF8BC13BD
:1055C0000870B7480078012805D0DFF8B4030088D8
:1055D000DFF8B0130870B3480078012805D0DFF871
:1055E000A8030088DFF8A4130880AF4800780128DA
:1055F00005D0DFF89C030068DFF8981308809E4808
:105600000078012805D05FF4FC200068DFF88813DB
:1056100008609A480078012805D0DFF88003006808
:10562000DFF87C130860DFF87C030078012805D0E0
:10563000DFF874030068DFF87413086000209049F5
:105640000870DFF86C030078072809D1DFF86403DD
:105650000078012804D10021200040B2FEF7F0FCC0
:10566000DFF854030078082840F0FB80D348007826
:10567000012840F0F680FF20FCF768FEFC20FCF7D4
:1056800065FE804802780421FF20FEF7A1FC7E48D9
:1056900002780821FF20FEF79BFC7C4802880C2141
:1056A000FF20FEF795FC7A4802881421FF20FEF7C0
:1056B0008FFC784802681C21FF20FEF789FC7648A1
:1056C00002682C21FF20FEF783FC8048026820211D
:1056D000FC20FEF77DFC7F4802783C21FF20FEF78E
:1056E00077FC7E4802784021FF20FEF771FC7D4860
:1056F00002884421FF20FEF76BFC7C4802884C2185
:10570000FF20FEF765FC7B4802685421FF20FEF76E
:105710005FFC7A4802686421FF20FEF759FC794853
:1057200002683021FC20FEF753FC7848027874218F
:10573000FF20FEF74DFC774802787821FF20FEF726
:1057400047FC764802887C21FF20FEF741FC754823
:1057500002888421FF20FEF73BFC744802688C21FC
:10576000FF20FEF735FC734802689C21FF20FEF7FE
:105770002FFC724802684021FC20FEF729FC012022
:105780008F4908706F480278AC21FF20FEF720FC9B
:105790006E480278B021FF20FEF71AFC6D4802889F
:1057A000B421FF20FEF714FC6C480288BC21FF20C6
:1057B000FEF70EFC6B480268C421FF20FEF708FCD0
:1057C0006A480268D421FF20FEF702FC694802689B
:1057D0005021FC20FEF7FCFB68480278E421FF2002
:1057E000FEF7F6FB67480278E821FF20FEF7F0FBA2
:1057F00066480288EC21FF20FEF7EAFB6548028834
:10580000F421FF20FEF7E4FB634802680021FC203E
:10581000FEF7DEFB624802681021FC20FEF7D8FB91
:10582000624802686021FC20FEF7D2FB002062493A
:105830000870002061490870002018490870002095
:105840001749087000201749087000201649087091
:1058500000200949087000200849087000205149BB
:1058600008702800451EC0B200287EF457AE012003
:1058700070BD00002004FF1F5C11FF1F5D11FF1FA2
:105880005711FF1F5F11FF1F6011FF1F2811FF1F1E
:105890002A11FF1FF80FFF1FFC0FFF1F5811FF1FDA
:1058A0005911FF1F5A11FF1F5B11FF1FC80CFF1F6B
:1058B00004F8070008F807000CF8070014F80700C0
:1058C0001CF807002CF8070020E007000010FF1F5D
:1058D0003CF807006111FF1F40F807006211FF1F2D
:1058E00044F807002C11FF1F4CF807002E11FF1F72
:1058F00054F807000410FF1F64F807000810FF1F8A
:1059000030E007000C10FF1F74F807006311FF1F41
:1059100078F807006411FF1F7CF807003011FF1FA3
:1059200084F807003211FF1F8CF807001010FF1FCA
:105930009CF807001410FF1F40E007001810FF1F1D
:10594000ACF807006511FF1FB0F807006611FF1FD4
:10595000B4F807003411FF1FBCF807003611FF1F11
:10596000C4F807001C10FF1FD4F807002010FF1F09
:1059700050E007002410FF1FE4F807006711FF1F25
:10598000E8F807006811FF1FECF807003811FF1F47
:10599000F4F807003A11FF1F2810FF1F10E007005E
:1059A0002C10FF1F5E11FF1F60E007003010FF1F6B
:1059B0005311FF1F5411FF1F5511FF1F5611FF1FD9
:1059C0002104FF1F10B582B0DFF8A8040468FAF7BD
:1059D00023FDFCF722FBADF80000FCF71BFBADF844
:1059E00002004FF6FF720099200000F001F813BD8D
:1059F000F2B50400150000992000FCF7FDF9BDF890
:105A00000000BDF80210484307000120DFF86814C9
:105A100008600020DFF8641408600020DFF86014DC
:105A200008602C20DFF85C1408700020DFF85814A0
:105A300008600120DFF8501408600120DFF84014EE
:105A4000086000200600BE4239D20120DFF8281489
:105A500008600120DFF8241408600020DFF820141B
:105A60000860ADB2280ADFF81C1408700020DFF8C7
:105A7000181408600120DFF8101408600120DFF816
:105A8000001408600120DFF8F01308600120DFF83F
:105A9000EC1308600020DFF8E8130860DFF8E40387
:105AA00005700020DFF8E01308600120DFF8D8134C
:105AB00008600120DFF8C8130860761CC3E7F1BD59
:105AC00038B50400DFF8C4030568FCF7A3FAADF8A5
:105AD0000200FCF7A2FAADF80000220092B2009991
:105AE0002800FFF785FF31BD2DE9F14781B00C009B
:105AF00015001E00DFF89803D0F800A0FCF78DFA1F
:105B00000838BDF80410884206DBFCF783FA103829
:105B1000BDF80610884200DAB3E051460198FCF760
:105B20006BF90120DFF8501308600020DFF84C13F8
:105B300008600020DFF8481308602C20DFF84413C9
:105B400008700020DFF8401308600120DFF83813E8
:105B500008600120DFF828130860002081465FFA02
:105B600089F9B9F1100F80F28C80DFF82803E4B2D4
:105B7000210151FA89F10818B0F50070007807008A
:105B8000002080465FFA88F8B8F1080F76DA380608
:105B900038D50120DFF8E01208600120DFF8DC12C0
:105BA00008600020DFF8D8120860ADB2280ADFF8DC
:105BB000D41208700020DFF8D01208600120DFF84E
:105BC000C81208600120DFF8B81208600120DFF871
:105BD000A81208600120DFF8A41208600020DFF896
:105BE000A0120860DFF89C0205700020DFF8981210
:105BF00008600120DFF8901208600120DFF88012B1
:105C0000086037E00120DFF8701208600120DFF83B
:105C10006C1208600020DFF868120860B6B2300A23
:105C2000DFF8601208700020DFF85C1208600120C5
:105C3000DFF8541208600120DFF8441208600120E8
:105C4000DFF8341208600120DFF83012086000200D
:105C5000DFF82C120860DFF82C0206700020DFF855
:105C6000281208600120DFF8201208600120DFF808
:105C7000101208607F0018F1010883E719F101098B
:105C80006DE7BDE8F38771B581B00C0015001E000B
:105C9000207800282AD0FCF7C0F90838BDF8041095
:105CA000884207DA0020ADF80400BDF80600103085
:105CB000ADF80600FCF7AEF91038BDF806108842C2
:105CC00005DA0020ADF806000020ADF8040033002E
:105CD0009BB22A0092B221780198FFF705FFBDF828
:105CE00004000830ADF80400641CD1E773BD2DE951
:105CF000F14181B00C0015001E0027005FF0000884
:105D0000BDF80600ADF80200002C08D133009BB2AC
:105D10002A0092B230210198FFF7E6FE29E0002F19
:105D200005D00A20B7FBF0F718F10108F7E7002CBF
:105D30001FD0BDF804005FFA88F81FFA88F810EB4E
:105D4000C8000838ADF80000B8F101080A20330097
:105D50009BB22A0092B2B4FBF0F100FB114010F1AB
:105D60003001C9B20098FFF7BFFE0A20B4FBF0F47F
:105D7000DDE7BDE8F3812DE9F14382B089461500E6
:105D80001E000A9C4F465FF00008BDF80A00ADF8FF
:105D90000600B9F1000F1CD123009BB2320092B271
:105DA00030210298FFF7A0FEBDF808000830ADF8DA
:105DB00008001020ADF80200EDB2681E80B2C000ED
:105DC000ADF80000220092B200990298FFF710FE91
:105DD0004EE0002F05D00A20B7FBF0F718F10108BC
:105DE000F7E75FFA88F8EDB2A84500D3A8465FFA56
:105DF00088F847465FFA88F8B8F1000F1FD0BDF861
:105E000008005FFA88F81FFA88F810EBC800083815
:105E1000ADF80400B8F101080A2023009BB232005B
:105E200092B2B9FBF0F100FB119010F13001C9B250
:105E30000198FFF759FE0A20B9FBF0F9DAE7EDB255
:105E4000AF4215D0EDB2E81B80B2C000ADF8000043
:105E5000BDF80800F90011FA80F0ADF80800102034
:105E6000ADF80200220092B200990298FFF7C0FD3F
:105E7000BDE8F78300AF00003010FE433410FE434E
:105E80004010FE43C0F00F403810FE4304AF000046
