:10000000F8FF002011040000EFCA0000EFCA000052
:10001000EFCA0000EFCA0000EFCA0000EFCA0000FC
:10002000EFCA0000EFCA0000EFCA0000EFCA0000EC
:10003000EFCA0000EFCA0000EFCA0000EFCA0000DC
:10004000EFCA0000EFCA0000EFCA0000EFCA0000CC
:10040000FFFFFFFFFFFFFFFFFFFFFFFFFEFFFFFFFD
:1004100062B615F091FCFEE710B40023DFF88445C6
:100420002370DFF884351B78180000231A0000239E
:100430001900D2B24F2A0FDAC0B200280CD0DFF870
:100440006C35C0B2502404FB0033D2B2D35C002B15
:1004500000D1491C521CECE7C9B2D1F15003052B65
:1004600006DA0123DFF83C452370DFF844351870C5
:1004700010BC704780B50020DFF838150870FFF712
:10048000CBFFDFF834050078002840F02581DFF845
:100490002C050078002840F01F81DFF82405007843
:1004A000002840F01981DFF8000500780B28C0F221
:1004B000B180DFF8F804DFF8F0140978502202FB6D
:1004C0000100DFF800150978085C002840D0DFF84B
:1004D000D404007800283BD1DFF8CC040078002851
:1004E00036D0DFF8E004007800F07EFADFF8D404BC
:1004F000007800F0A3FADFF8D0040078DFF8CC141D
:10050000DFF8A4241278891A81F83B00DFF8C004D0
:100510000078DFF8C014DFF890241278891A81F887
:100520003B00DFF8A4040078DFF8A4140978081869
:1005300080B24008DFF8A0140870DFF89C0400784F
:10054000DFF89814DFF860241278891A81F83B00EC
:10055000DFF85804DFF850140978502202FB01003C
:10056000DFF860140978085C002840F0A180DFF80B
:100570003C04DFF834140978502202FB0100DFF854
:1005800058140978085C002800F09280DFF8140401
:100590000078002840F08C80DFF80C0400780028F8
:1005A00000F08680DFF83004007800F01DFADFF8F4
:1005B0002804007800F042FADFF80C040078DFF835
:1005C0000C14DFF8E4231278891A81F83B00DFF875
:1005D00000040078DFF8FC13DFF8CC231278891AC6
:1005E00081F83B00DFF8E0030078DFF8E4130978D6
:1005F000081880B24008DFF8E0130870DFF8D8036D
:100600000078DFF8D813DFF8A0231278891A81F870
:100610003B004DE0DFF89403DFF88C13097850229B
:1006200002FB0100DFF8B0130978085C00283FD016
:10063000DFF87003007800283AD1DFF86C03007807
:10064000002835D0DFF89003007800F0CDF9DFF80E
:100650008803007800F0F2F9DFF86C030078DFF827
:100660006C13DFF844231278891A81F83B00DFF815
:1006700060030078DFF85C13DFF82C231278891A06
:1006800081F83B00DFF840030078DFF84413097875
:10069000081880B24008DFF840130870DFF838030C
:1006A0000078DFF83813C04A1278891A81F83B00C5
:1006B000BE48BD490978502202FB0100DFF818133B
:1006C0000978085C002855D1B7480078002851D037
:1006D0000120B84908704DE0B448B3490978502268
:1006E00002FB0100BC490978085C002830D0AD4805
:1006F000007800282CD1AC480078002828D0B648D3
:10070000007800F071F9B448007800F097F9AE482D
:100710000078AE49A44A1278891A81F83B00AC48A7
:100720000078AC49A04A1278891A81F83B00A648A3
:100730000078A7490978081880B24008A6490870CF
:10074000A5480078A549984A1278891A81F83B0093
:10075000964895490978502202FB01009E49097884
:10076000085C002806D190480078002802D00120BB
:100770009049087001BD38B504000D00E4B2002CAA
:100780002ED1002090490870EDB24F2D28DA87480D
:1007900085490978502202FB0100EDB2285C00284F
:1007A00019D1824880490978502202FB0100EDB23C
:1007B0002818407800280CD0681C894909680870FE
:1007C000814800788149784A1278891A81F83B007B
:1007D00006E06D1CD8E72900C9B20320FFF7CBFF64
:1007E000E4B2012C30D14F2079490870EDB2002DD0
:1007F0002AD06E486C490978502202FB0100EDB204
:10080000285C00281BD1694867490978502202FBFF
:100810000100EDB2281810F8010C00280DD0681E58
:10082000DFF8C011096808706948007869495E4AB4
:100830001278891A81F83B0006E06D1ED6E7290080
:10084000C9B20420FFF797FFE4B2032C2ED1002099
:100850005D490870EDB2002D28D0544852490978FE
:10086000502202FB0100EDB2285C002819D04F484D
:100870004D490978502202FB0100EDB2281810F80A
:10088000010C00280BD15648006805704E480078CE
:100890004E49454A1278891A81F83B0006E06D1EE0
:1008A000D8E72900C9B20020FFF765FFE4B2042CA5
:1008B0002ED14F2046490870EDB24F2D28DA3B4823
:1008C00039490978502202FB0100EDB2285C00286A
:1008D00019D0364834490978502202FB0100EDB2A4
:1008E0002818407800280CD1DFF8F800006805705F
:1008F0003748007837492C4A1278891A81F83B002A
:1009000006E06D1CD8E72900C9B20120FFF733FFCC
:1009100031BD10B40023DFF87C412370D2B2002A2D
:100920001CD1C0B2022819DB204BC0B2502404FBFA
:100930000033C9B2CB5C002B0ED01C4BC0B250248C
:1009400004FB0033C9B2CB1813F8503C002B03D181
:10095000DFF84031187001E0401EE2E7D2B2012A10
:100960001CD1C0B2022819DB104BC0B2502404FBCA
:100970000033C9B2CB5C002B0ED10C4BC0B250245B
:1009800004FB0033C9B2CB1813F8503C002B03D042
:10099000DFF80031187001E0401EE2E710BC70473C
:1009A0000000000081F4FF1F31F4FF1F9487FF1F38
:1009B000A2F4FF1F79F4FF1F50F4FF1F87F4FF1FFD
:1009C00088F4FF1F78F4FF1F2EF4FF1F0411FF1F90
:1009D0001004FF1FC810FF1F3DF4FF1F8C10FF1FE6
:1009E0001404FF1F1804FF1F10B504000020DFF8D7
:1009F0003C150870E4B2002C1FD02848264909781D
:100A0000502202FB0100E4B2205C002815D02348EC
:100A100021490978502202FB0100E4B2201810F8A5
:100A2000010C002804D1DFF808050068047004E018
:100A3000641E2000C0B2FFF7D7FF10BD10B5040040
:100A40004F20DFF8F0140870DFF8E8040078E4B213
:100A500084421ED2114810490978502202FB01003D
:100A6000E4B2205C002814D00C480B4909785022CD
:100A700002FB0100E4B220184078002804D1DFF81E
:100A8000B8040068047004E0641C2000C0B2FFF7E2
:100A9000D5FF10BD80F4FF1F31F4FF1F9487FF1FA7
:100AA0002DE9F843040000250026E4B2002C40F0B4
:100AB0008480DFF888040078002863D0DFF88004A1
:100AC0000078DFF878140978401A0500DFF8700420
:100AD0000078DFF870140870002006000020DFF8AE
:100AE00068140870DFF860040078DFF86014097893
:100AF00088423AD2DFF848040078DFF848140870DA
:100B0000DFF84C04DFF83C140978502202FB0100A6
:100B1000DFF834140978085C002826D00022DFF8BA
:100B200028040178DFF81C040078FFF7F2FEDFF8F4
:100B300010040078DFF81C140978401AEDB2A842BE
:100B40000BDBDFF8FC030078DFF808140978401AA3
:100B5000EDB2401B052800DB761CDFF8EC030078C3
:100B6000401CDFF8E4130870BCE7F6B2092E04DB82
:100B70000120DFF8E41308701FE00020DFF8D8132D
:100B800008701AE0DFF8D4030078DFF8D41309788E
:100B9000884204D20020DFF8C01308700DE0DFF8AF
:100BA000C4030078012804D10020DFF8AC130870DA
:100BB00003E00120DFF8A0130870E4B2012C40F03C
:100BC0007F80DFF8A4030078DFF894130978401AD7
:100BD0000500DFF88C03007800285CD0DFF88C0378
:100BE0000078502804DB0020DFF86C13087067E001
:100BF000DFF874030078DFF84C130870002006005B
:100C00004F20DFF844130870DFF864030078DFF842
:100C100038130978884233D2DFF84C030078DFF8C4
:100C200024130870DFF82803DFF81813097850221E
:100C300002FB0100DFF810130978085C00281FD0C0
:100C40000022C1480178BF480078FFF762FEDFF854
:100C500018030078BF490978401AEDB2A84209DBB1
:100C6000C1480078BB490978401AEDB2401B0528FD
:100C700000DB761CB4480078401EB3490870C3E717
:100C8000F6B2092E03DB0120B349087018E00020FA
:100C9000B149087014E0B7480078A849097888423B
:100CA00003D20020AC4908700AE0B348007801285C
:100CB00003D10020A849087002E00120A64908706D
:100CC000E4B2022C40F09580002007009B48007899
:100CD0009C49087000208146A84800789949097805
:100CE00088427AD2002080463900C9B20020FFF73E
:100CF00042FD8E4800780700FFB24F2F19DA944862
:100D000090490978502202FB0100FFB2385C0028AC
:100D10000DD08F488B490978502202FB0100FFB2A9
:100D200038184078002802D10120804601E07F1C5D
:100D3000E2E75FFA88F8B8F1010F41D1FFB24F2F17
:100D40003EDA83487F490978502202FB0100FFB256
:100D5000385C00282DD17E487A490978502202FB60
:100D60000100FFB238184078002822D002208046C7
:100D700074490978080071490978C0B2884218D2CC
:100D80007349C0B2502202FB0011FFB2795C002906
:100D90000DD16F49C0B2502202FB0011FFB2791889
:100DA00091F85010002902D00321884601E0401C30
:100DB000E1E75FFA88F8B8F1010F01D17F1CBDE7C8
:100DC0005FFA88F8B8F1030F01D119F101095D4804
:100DD0000078401E5B4908707EE75FFA89F9B9F137
:100DE000030F03DB01205C49087002E000205A4930
:100DF0000870E4B2032C40F096804F20070058485A
:100E0000007850490870002081465D4800784D49BF
:100E1000097888427BD2002080463900C9B201207F
:100E2000FFF7A9FC434800780700FFB2002F1AD053
:100E3000474844490978502202FB0100FFB2385C60
:100E400000280ED042483F490978502202FB010099
:100E5000FFB2381810F8010C002802D1012080469A
:100E600001E07F1EE1E75FFA88F8B8F1010F41D198
:100E7000FFB2002F3ED0364832490978502202FB9B
:100E80000100FFB2385C00282DD131482D49097886
:100E9000502202FB0100FFB238184078002822D00F
:100EA000022080462749097808002D490978C0B2F8
:100EB000884218D22649C0B2502202FB0011FFB26C
:100EC000795C00290DD12249C0B2502202FB0011E9
:100ED000FFB2791891F85010002902D003218846FA
:100EE00001E0401CE1E75FFA88F8B8F1010F01D199
:100EF0007F1EBDE75FFA88F8B8F1030F01D119F141
:100F0000010910480078401E0E4908707DE75FFA1D
:100F100089F9B9F1030F03DB01200F49087002E0E2
:100F200000200D490870BDE8F18300002EF4FF1F7A
:100F30001404FF1F1004FF1F1804FF1F36F4FF1FC7
:100F400033F4FF1F31F4FF1F32F4FF1FC810FF1FDF
:100F50009487FF1F80F4FF1F50F4FF1F73F4FF1FDF
:100F600035F4FF1F72F4FF1F34F4FF1F75F4FF1FE9
:100F70000411FF1F74F4FF1F71F4FF1F6BF4FF1FB8
:100F80006AF4FF1FF8B5DFF8240C0078DFF8201CA6
:100F900008700020DFF81C1C08703B20DFF8181CCC
:100FA00008700020DFF8141C0870DFF8140C0078BB
:100FB000DFF8101C08700020DFF80C1C08700020FF
:100FC000DFF8081C0870DFF8F00B00780228C0F288
:100FD0005F84DFF8E40B007815281FDADFF8F00BE8
:100FE000DFF8D41B0978502202FB0100DFF8C01B98
:100FF0000978081810F8500C002800F04984DFF830
:10100000D00BDFF8B41B0978502202FB0100DFF897
:10101000A01B0978085C002800F03A840020DFF863
:10102000B41B0870FFF7F8F9DFF8880B0078012887
:1010300000F02E84FFF71EFADFF89C0B00780028E2
:1010400040F01D84DFF8680B0078DFF8901B087013
:10105000DFF86C0B0078002800F0F680DFF8600BFA
:101060000078DFF8601B0978884235D3DFF8700B11
:101070000078401CDFF8681B0870DFF8440B00782C
:10108000DFF8401B0978401A052810DBDFF8280B31
:1010900000780B280BDBDFF8200B0078DFF8441B0F
:1010A0000870DFF81C0B0078DFF83C1B0870DFF8D5
:1010B000140B0078DFF8081B0978884206D2DFF8A5
:1010C000080B0078401CDFF8001B0870DFF8F00AFE
:1010D0000078DFF8F01A0870DFF8E40A0078DFF82B
:1010E000E41A097888424AD2DFF8E00A0078401C06
:1010F000DFF8D81A0870DFF8C00A0078022838DB59
:10110000DFF8E80A0078002833D1DFF8C40ADFF8F6
:10111000A81A0978502202FB0100DFF8941A097816
:10112000081810F8500C002823D0DFF8A40ADFF8C4
:10113000881A0978502202FB0100DFF8701A09783A
:10114000081810F8500C002813D0DFF8740A007843
:101150000400DFF8640A00780500DFF8680A017807
:10116000002004F02FF9DFF8580A0470DFF8480A6D
:101170000570DFF84C0A0078DFF8481A0870DFF8CD
:10118000380A007800280FD0DFF82C0A0078401EBB
:10119000DFF8241A0870FFF76DF9DFF81C0A0078F1
:1011A000401CDFF8141A0870DFF8180A00780028CD
:1011B00048D0DFF80C0A0078002843D1DFF8040A91
:1011C0000078DFF82C1A0870DFF8EC0900780228A4
:1011D00038DBDFF8180A0078002833D1DFF8F0098F
:1011E000DFF8D4190978502202FB0100DFF8C0199A
:1011F0000978081810F8500C002823D0DFF8D0091F
:10120000DFF8B4190978502202FB0100DFF89C19BD
:101210000978081810F8500C002813D0DFF8A0093E
:1012200000780400DFF8900900780500DFF89409E1
:101230000178002004F0C6F8DFF884090470DFF8B4
:1012400078090570FFF716F9DFF8740900780028AF
:1012500040F01583FFF70EF9DFF854090078DFF846
:101260007C1908700020040000200500DFF8480900
:101270000078022842DBDFF83809007805283DDBDA
:10128000DFF82C0900784C2838DADFF84409DFF859
:1012900028190978502202FB0100DFF8101909789B
:1012A000085C00280DD1DFF82809DFF80C1909784F
:1012B000502202FB0100DFF8F8180978085C0028CA
:1012C0001CD0FFF7D7F8DFF810090078012800D10B
:1012D0006D1CDFF804090078002807D1DFF8E0086A
:1012E0000078002801D1641C00E007E0DFF8C8089E
:1012F0000078401EDFF8C0180870B7E7DFF8B808BC
:10130000007820182818DFF8B01C0870DFF8A8084B
:101310000078401CDFF8A41C0870DFF8A4080078EF
:10132000DFF89C1C0870DFF89C0C0078DFF8981C34
:101330000870DFF87C080078DFF8901C0870DFF890
:1013400078080078DFF8881C0870DFF8A4080078B7
:10135000DFF8801C0870E4B2032CC0F28B82DFF847
:101360007C080078DFF8701C08700120DFF86C1C26
:10137000087005F0F1FEDFF8680C0078DFF8641CF7
:101380000870DFF8640C0078DFF8601C0870DFF884
:10139000400C0078DFF820180870DFF81C0C00788B
:1013A0003928C0F2B6810120DFF8441C0870002003
:1013B000DFF8401C08700020DFF8001808700020DB
:1013C000DFF8341C0870DFF8F00700780328C0F25B
:1013D0008D81DFF8DC0700780528C0F28781DFF80F
:1013E000D00700784C2880F28181DFF8E407DFF82D
:1013F000C8170978502202FB0100DFF8B0170978FE
:10140000085C00280ED1DFF8C807DFF8AC170978B0
:10141000502202FB0100DFF898170978085C0028C9
:1014200000F06481FFF726F8DFF8940700780028C1
:1014300000F09280DFF8C00B0078DFF8841709789D
:10144000884220D2DFF878070078DFF8AC1B0978F3
:10145000401A052810DBDFF8600700780B280BDB4B
:10146000DFF854070078DFF87C170870DFF85007C2
:101470000078DFF874170870DFF840070078401C28
:10148000DFF838170870DFF838070078DFF8681BD6
:101490000978884244D2DFF85C0B0078401CDFF802
:1014A000541B0870DFF810070078022838DBDFF8DB
:1014B0003C070078002833D1DFF81407DFF8F8166E
:1014C0000978502202FB0100DFF8E41609780818B9
:1014D00010F8500C002823D0DFF8F406DFF8D816F7
:1014E0000978502202FB0100DFF8C01609780818BD
:1014F00010F8500C002813D0DFF8C406007806005E
:10150000DFF8B40600780700DFF8EC0A0178002065
:1015100003F058FFDFF8A8060670DFF89C06077096
:10152000DFF8AC0A0078C01EDFF88C160978884214
:101530000CDADFF8C40A0078401DDFF88416097859
:10154000884203DA0120DFF8681C0870DFF87006B3
:101550000078DFF8A41A0870DFF864060078002825
:1015600040F0BC80DFF8540A0078DFF84C160978A8
:10157000401ADFF8401C0870DFF870060078002879
:1015800010D10120DFF864160870DFF82C0600780F
:10159000401CDFF8241C0870DFF85C0A0078DFF8D4
:1015A0001C1C0870DFF82C0A0078DFF8141C087087
:1015B000DFF8440A0078DFF838160870DFF8F80919
:1015C0000078DFF8001C0870DFF8F0090078DFF819
:1015D000F81B0870DFF8D8050078DFF8FC190870F0
:1015E0000020DFF8E81B0870DFF8CC05007803283E
:1015F00051DBDFF8DC05DFF8C0150978502202FB6B
:101600000100DFF8A8150978085C00280DD1DFF883
:10161000C005DFF8A4150978502202FB0100DFF8AD
:1016200090150978085C002835D0DFF8A405DFF8AC
:1016300088150978502202FB0100DFF8701509783F
:10164000081810F8500C00280FD1DFF88405DFF8D7
:1016500068150978502202FB0100DFF8541509785B
:10166000081810F8500C002815D0FEF703FFDFF81B
:101670005005007800280ED1DFF8500B0078401C90
:10168000DFF8481B0870DFF830050078401EDFF8EF
:1016900028150870A8E7DFF820050078DFF82C1B74
:1016A00009780818DFF810190870DFF80C050078C1
:1016B000401CDFF808190870DFF8100B00780428C8
:1016C0000CDB0120DFF8081B0870DFF82405007828
:1016D000DFF80019087005F03FFD07E0DFF8D804D7
:1016E0000078801EDFF8D01408706CE6DFF8CC04B8
:1016F000007806280DDBDFF8D40A0078002808D12E
:10170000DFF8AC0A0078002803D10120DFF8C41A02
:101710000870DFF8A40800783B2880F2AB80DFF87F
:10172000BC040078DFF8B0180870DFF89C0400787B
:10173000062803DB0120DFF89C1A08700020DFF880
:10174000B41808700020DFF8741408700020DFF867
:10175000A8180870DFF8600400780328C0F28A80B7
:10176000DFF86C04DFF850140978502202FB010006
:10177000DFF838140978085C00280DD1DFF8500430
:10178000DFF834140978502202FB0100DFF820143E
:101790000978085C00286DD0DFF83404DFF81814ED
:1017A0000978502202FB0100DFF8001409780818BC
:1017B00010F8500C00280FD1DFF81404DFF8F813EC
:1017C0000978502202FB0100DFF8E41309780818B9
:1017D00010F8500C00284DD0FEF74CFEDFF8E00367
:1017E0000078002839D0DFF8D8030078DFF808182F
:1017F0000978884206D3DFF8C4030078401CDFF87C
:10180000BC130870DFF8B8030078DFF8EC1709782C
:10181000884206D2DFF8DC070078401CDFF8D417D6
:101820000870DFF8AC070078C01EDFF88C13097869
:1018300088420CDADFF8C0070078401DDFF880131B
:101840000978884203DA0120DFF864190870DFF8AC
:1018500070030078DFF8A0170870DFF864030078E1
:10186000002807D0DFF850030078401EDFF8481347
:1018700008706FE7DFF864070078012808D0DFF808
:1018800038030078801EDFF830130870FFF79BBB29
:10189000DFF824030078DFF840190870DFF83C0710
:1018A0000078012808D1DFF8100700783B2803D121
:1018B0000120DFF8281908703B20BF490870BB4899
:1018C0000078FFF791F8B9480078FFF7B7F8B74804
:1018D0000078B74908703B20B74908700020DFF84E
:1018E00000190870DFF8DC060078B649087000209F
:1018F000DFF8F01808700020DFF8EC180870AE4828
:1019000000780228C0F27284AB480078152819DAF2
:10191000AF48A9490978502202FB0100A44909787F
:10192000081810F8500C002800F06084A848A2495C
:101930000978502202FB01009D490978085C0028C3
:1019400000F054840020A3490870FEF765FD994813
:101950000078012800F04A84FEF78CFD9E4800784C
:10196000002840F01C84924800789C490870DFF8F9
:10197000540600784F2800F0D38092480078DFF8B2
:1019800044160978884230D3DFF8780D0078401C7F
:10199000DFF8701D08708B480078DFF8281609788A
:1019A000401A05280EDB844800780B280ADB8248A1
:1019B0000078DFF8541D0870DFF808060078DFF8BB
:1019C0004C1D0870DFF8FC0500787E4909788842D4
:1019D00006D2DFF810080078401CDFF808180870FD
:1019E000DFF8E00500787749087076480078DFF87E
:1019F000D415097888423FD2DFF8EC070078401C04
:101A0000DFF8E41708706C48007802282FDBDFF855
:101A1000C80D007800282AD16D48674909785022FE
:101A200002FB010062490978081810F8500C0028E0
:101A30001DD0674860490978502202FB01005B49CC
:101A40000978081810F8500C002810D0DFF8740539
:101A5000007804005848007805005A4801780120B1
:101A600003F0B0FCDFF85C05047053480570DFF844
:101A700054050078534908704F48007800280BD06F
:101A80004D480078401E4C490870FEF7F3FC4A4868
:101A90000078401C484908704A4800784F283DD0DB
:101AA000DFF8200500784F2838D146480078DFF865
:101AB0002C1D08704048007802282FDBDFF8180D35
:101AC000007800282AD142483B490978502202FB7D
:101AD000010037490978081810F8500C00281DD06B
:101AE0003B4835490978502202FB01002F4909780B
:101AF000081810F8500C002810D0DFF8C80400783F
:101B000004002D48007805002E480178012003F0DC
:101B100059FCDFF8B004047027480570FEF7AAFCF2
:101B2000DFF8A00400784F2840F03983FEF7A2FCCC
:101B30001F48007829490870002004000020050093
:101B40001D480078022855DB19480078052851DB2C
:101B5000174800784C284DDA1D481749097850225B
:101B600002FB010011490978085C00280AD11848D5
:101B700011490978502202FB01000D490978085CDF
:101B8000002837D0FEF776FC13480078002807D1EC
:101B9000DFF8300400784F2801D1641C00E029E010
:101BA00005480078401E04490870C9E778F4FF1F13
:101BB0003DF4FF1F81F4FF1F31F4FF1F5BF4FF1F93
:101BC0002EF4FF1F56F4FF1F57F4FF1F59F4FF1F99
:101BD0009487FF1F9FF4FF1F79F4FF1F3EF4FF1F40
:101BE000ABF4FF1F99F4FF1F9BF4FF1F71F4FF1F5D
:101BF0002104FF1FDFF8DC0D007820182818DFF81B
:101C0000D81D0870DFF8CC0D0078401CDFF8CC1D23
:101C10000870DFF8CC0D0078DFF8C81D0870DFF819
:101C2000A4030078DFF8C01D0870DFF8C00D00784D
:101C3000DFF8BC1D0870DFF89C0D0078DFF8B41DDC
:101C40000870DFF8980B0078DFF8AC1D0870E4B27C
:101C5000032CC0F29F82DFF8A40D0078DFF8A01DEE
:101C600008700120DFF89C1D087005F09BFBDFF871
:101C7000980D0078DFF8941D0870DFF8940D007857
:101C8000DFF8901D0870DFF86C0D0078DFF8441D58
:101C90000870DFF8440D00783928C0F2C9810120AE
:101CA000DFF8741D08700020DFF8701D0870002038
:101CB000DFF86C1D08704F20CF490870DFF8140D55
:101CC00000780328C0F2A281DFF8200D00780528F3
:101CD000C0F29C81DFF8140D00784C2880F29681C8
:101CE000DFF8400DDFF8EC1C0978502202FB010000
:101CF000DFF8341D0978085C00280ED1DFF8240DC8
:101D0000DFF8D01C0978502202FB0100DFF8DC1C50
:101D10000978085C002800F07981FEF7ABFBDFF85A
:101D2000C00C00784C2880F27181A64800784F28BA
:101D300000F08480A3480078AF49097888421DD21A
:101D4000AD4800789F490978401A05280FDBDFF875
:101D5000840C00780B280ADBDFF8780C0078DFF8B9
:101D6000A819087097480078DFF8A0190870DFF804
:101D700070040078401CDFF8681408709E480078F2
:101D800090490978884241D2DFF8900C0078401CD5
:101D9000DFF8881C0870DFF83C0C0078022835DB7F
:101DA000DFF8340A0078002830D1DFF8780CDFF84B
:101DB000241C0978502202FB0100DFF8301C09784E
:101DC000081810F8500C002820D0DFF8580CDFF865
:101DD000041C0978502202FB0100DFF84C1C097832
:101DE000081810F8500C002810D07648007806002B
:101DF000DFF8E00B007807007F480178012003F04E
:101E0000E1FADFF8D00B07706E480670DFF8E40BDC
:101E10000078C01EDFF8BC1B097888420ADA6948DE
:101E20000078401D74490978884203DA0120DFF800
:101E3000581D0870634800786F4908706148007841
:101E40004F2840F0DB80DFF8940B0078DFF8841B2C
:101E50000978401ADFF8341D0870DFF87C09007833
:101E600000280FD10120DFF870190870DFF8640B2B
:101E70000078401CDFF8181D08705F480078DFF814
:101E8000141D0870DFF8700B0078DFF80C1D087067
:101E900059480078DFF844190870DFF83C0B0078E7
:101EA000DFF8F81C0870DFF8340B0078DFF8F01C5E
:101EB0000870DFF8380B0078DFF8441B087000204A
:101EC000DFF8E01C0870DFF80C0B0078032850DB0B
:101ED000DFF8500BDFF8FC1A0978502202FB0100F2
:101EE000DFF8441B0978085C00280DD1DFF8340BBB
:101EF000DFF8E01A0978502202FB0100DFF8EC1A43
:101F00000978085C002834D0DFF8180BDFF8C41A11
:101F10000978502202FB0100DFF80C1B0978081831
:101F200010F8500C00280FD1DFF8F80ADFF8A41AD7
:101F30000978502202FB0100DFF8B01A097808186E
:101F400010F8500C002814D0FEF794FA1D480078C1
:101F50004F280ED1DFF84C0C0078401CDFF8441CF1
:101F60000870DFF8700A0078401EDFF8681A087001
:101F7000A9E7DFF8600A0078DFF8281C097808185C
:101F8000DFF8541A0870DFF84C0A0078401CDFF8BC
:101F90004C1A0870DFF80C0C007804282EDB0120A6
:101FA000DFF8C81D0870DFF834080078DFF8481A39
:101FB000087005F0F7F929E033F4FF1F36F4FF1F2E
:101FC00064F4FF1F1004FF1F62F4FF1F66F4FF1F7D
:101FD00069F4FF1F1C04FF1F60F4FF1F40F4FF1F84
:101FE00048F4FF1F4CF4FF1F49F4FF1F4DF4FF1F7F
:101FF0006CF4FF1F54F4FF1F53F4FF1FDFF8D409E4
:102000000078801EDFF8CC19087057E67448007815
:1020100006280DDBDFF88C0B0078002808D1DFF8EC
:10202000680B0078002803D10120DFF8441D0870F8
:10203000DFF8A40900783B2880F2AC80DFF8BC0907
:102040000078DFF8BC19087066480078062807DBBE
:1020500065480078002803D00120DFF8141D0870BF
:102060000020DFF8B81908700020DFF8B4190870F4
:102070004F20DFF8001D0870DFF8580900780328AA
:10208000C0F28880DFF89C09DFF8481909785022EF
:1020900002FB0100DFF890190978085C00280DD1D7
:1020A000DFF88009DFF82C190978502202FB0100C3
:1020B000DFF838190978085C00286BD0DFF864096C
:1020C000DFF810190978502202FB0100DFF85819D7
:1020D0000978081810F8500C00280FD1DFF84409CF
:1020E000DFF8F0180978502202FB0100DFF8FC1835
:1020F0000978081810F8500C00284BD0FEF7BAF9F0
:10210000DFF8F40D00784F2837D0DFF8680C00783E
:10211000DFF8E41D0978884204D331480078401C78
:102120002F490870DFF84C0C0078DFF8CC1D0978D7
:10213000884206D2DFF8E4080078401CDFF8DC189B
:102140000870DFF8B0080078C01EDFF8881809783A
:1021500088420CDADFF8A00D0078401DDFF8141C6F
:102160000978884203DA0120DFF81C1A0870DFF8CA
:10217000880D0078DFF8FC1B0870DFF87C0D007814
:102180004F2807D0DFF84C080078401EDFF84418CD
:10219000087071E7DFF86C080078012826D0DFF8B6
:1021A00034080078801EDFF82C180870FFF7A7BBF2
:1021B00051F4FF1F82F4FF1F73F4FF1F75F4FF1F1C
:1021C0001F04FF1F37F4FF1F38F4FF1F30F4FF1FF9
:1021D0006EF4FF1F5DF4FF1F6BF4FF1F3BF4FF1F46
:1021E0005CF4FF1F58F4FF1F5AF4FF1FDFF8E407E9
:1021F0000078DFF8081D0870DFF80808007801286B
:1022000008D1DFF8D40700783B2803D10120DFF89C
:10221000F01C0870DFF8EC0C0078012840F0858194
:10222000DFF8E40C0078DFF8F017097808180028C8
:1022300040F01581DFF8CC0C0078012840F00F81C8
:10224000DFF8C80C0078012840F00981DFF8C00CE5
:102250000078002829D0DFF8BC0C0078142824DA94
:10226000DFF87405007800280FD0DFF86C050078DF
:1022700000281AD0DFF89C0C0078DFF814190978D0
:10228000401A05F04DFE05280FDA0020DFF8881C03
:1022900008700020DFF86C1C08700020DFF86C1C50
:1022A00008700020DFF8741C0870DFF82C05007837
:1022B000002829D0DFF8D8080078142824DADFF8BD
:1022C000500C007800280FD0DFF8440C007800286C
:1022D0001AD0DFF8400C0078DFF8B4180978401AFB
:1022E00005F01EFE05280FDA0020DFF82C1C087010
:1022F0000020DFF8101C08700020DFF8101C0870A8
:102300000020DFF8181C0870DFF8040C00780028A3
:1023100000F08B80DFF8C0040078002800F0858092
:10232000DFF8F00B0078DFF868180978401A05F03C
:10233000F7FD0A2879DADFF8940D007800281FD01D
:10234000DFF8C006007800281AD1DFF8840D007885
:10235000DFF8C01B0978401A05F0E2FD05280FDA06
:102360000020DFF8B41B08700020DFF8981B08700D
:102370000020DFF8981B08700020DFF8A01B087011
:10238000DFF88006007800281FD0DFF8400D0078C5
:1023900000281AD1DFF840060078DFF8F417097832
:1023A000401A05F0BDFD05280FDA0020DFF8681B94
:1023B00008700020DFF84C1B08700020DFF84C1B71
:1023C00008700020DFF8541B0870DFF8380600782A
:1023D00000282AD0DFF8F40C0078002825D0DFF898
:1023E000F8050078DFF8A8170978401A05F098FD7D
:1023F00005281ADADFF8D80C0078DFF8181B0978FE
:10240000401A05F08DFD05280FDA0020DFF8081BC3
:1024100008700020DFF8EC1A08700020DFF8EC1AD2
:1024200008700020DFF8F41A0870DFF8AC030078B9
:10243000002814D1DFF8D80A007800280FD1002036
:10244000DFF8D41A08700020DFF8B81A08700020EE
:10245000DFF8B81A08700020DFF8C01A0870DFF83B
:10246000A40A0078012860D10120DFF8AC1A0870B6
:102470000020DFF8481D08700020DFF8F41808700D
:10248000DFF8480C0078DFF87C1509780818012877
:1024900021D1DFF8380C007801280BD10120DFF8BA
:1024A0002C1C08700320DFF85C1508700020DFF892
:1024B000D41D0870DFF84C05007801280BD10120ED
:1024C000DFF8401508700320DFF8001C08700020BA
:1024D000DFF8B01D0870DFF82C050078DFF8EC1B82
:1024E0000978081800280BD10320DFF818150870A8
:1024F0000320DFF8D81B08700020DFF8881D087063
:10250000DFF8C80B0078DFF8FC14097808180228F7
:102510000BD10420DFF8EC1408700420DFF8AC1BAA
:1025200008700020DFF85C1D0870DFF8D80900781B
:10253000002842F0A580DFF8D0090078DFF8D81431
:1025400009780818002840F0A482DFF8B804007861
:10255000DFF8781B09780818002840F08781DFF839
:10256000280D0078002840F08181DFF870040078A1
:10257000002840F07B8198480078DFF894190978AA
:102580000818022840F05081DFF804060078DFF8D0
:1025900084190978401A05F0C3FC062880F23C81B2
:1025A000DFF8E80C0078DFF880140978884280F0C2
:1025B0003381DFF874040078DFF8D8150978884291
:1025C00080F02A81DFF84C090078DFF808140870E1
:1025D00003F061F8DFF8500400780400DFF8A80C7D
:1025E0000078DFF8F0130978884280F09180DFF8F6
:1025F0003404DFF8E0130978502202FB0100E4B252
:10260000205C002877D0DFF81C04DFF8C8130978B5
:10261000502202FB0100E4B2201810F8500C0028F0
:1026200069D1DFF8B0030078801E05F079FC050061
:10263000DFF860050078401E05F072FC06002F00F0
:10264000DFF84C050078DFF88C130870DFF884039E
:102650000078EDB285421ED204213000C0B2FEF7F0
:102660008AF8DFF830050078DFF88C18097888429E
:102670000DD20120DFF8A0180870DFF87C08007880
:102680000600D4480078401ED2490870DEE70020DA
:10269000DFF8841808703D00DFF8F00B0078401C6C
:1026A00005F03EFC0600DFF86C080078C9490870A8
:1026B000C8480078EDB285421CD203213000C0B278
:1026C000FEF759F8C6480078DFF8C01B0978884241
:1026D0000CD20120DFF840180870C14800780600CD
:1026E000BC480078401EBB490870E1E70020DFF8D5
:1026F000281808700CE0B7480078401EB5490870EB
:102700006CE700BFAAF4FF1F9AF4FF1F2404FF1F09
:10271000DFF804080078012862D10120DFF8E4170F
:1027200008700120DFF8F01708700020DFF88C1A1D
:1027300008700020DFF838160870DFF8900900787C
:10274000B0490978081801281ED1DFF880090078FF
:1027500001280AD10120DFF8741908700320A94963
:1027600008700020DFF81C1B0870A64800780128BC
:102770000AD10120A34908700320DFF8501908701E
:102780000020DFF8001B08709E480078DFF83C1935
:102790000978081800280AD103209A4908700320F4
:1027A000DFF8281908700020DFF8D81A0870DFF861
:1027B0001C090078934909780818022834D10420AC
:1027C000904908700420DFF8041908700020DFF831
:1027D000B41A087028E000BF72F4FF1F2004FF1F26
:1027E0000220DFF8E81808700220864908700020EF
:1027F000DFF8C81908700020DFF874150870012090
:10280000DFF8801A08700020DFF82C1D0870002007
:10281000DFF8281D087007E00020DFF8A019087015
:102820000020DFF84C150870DFF8140D0078DFF891
:10283000E01609780818012807D10020DFF87C1974
:1028400008700020DFF828150870DFF8F40C007815
:10285000DFF8BC1609780818002807D10020DFF837
:102860005C1908700020DFF808150870DFF85C08B4
:102870000078644909780818012840F0E68061482A
:102880000078012850D1DFF8E4040078012807D14E
:10289000C248007850490870C14800784F49087014
:1028A000DFF86C06007801282ED10220DFF81C1812
:1028B00008700120534908700020DFF800190870E3
:1028C0000020DFF8AC1408700120DFF8B819087098
:1028D0000020DFF8641C0870DFF8B0090078AD490B
:1028E00009780818022190FBF1F04F490978401A45
:1028F0000B2804DB0120DFF8441C0870A5E0002051
:10290000DFF8381C0870A0E001203E490870002064
:10291000DFF8B81708700020DFF8A0180870002052
:10292000DFF84C14087090E0DFF8540D00780128AF
:102930000BD1DFF8500D0078DFF894170870DFF83E
:10294000480D0078DFF840190870DFF8F40B0078C4
:1029500001286BD18E480078DFF8A0150978401A5D
:10296000062863DBDFF8240D0078401D89490978CB
:1029700088425BDA0120DFF85417087002202149F1
:1029800008700020DFF8341808700020DFF8E0132A
:1029900008700120DFF8EC1808700020DFF8981BA1
:1029A0000870DFF8E80800787A49097808180221E9
:1029B00090FBF1F01C490978401A0B2804DB012038
:1029C000DFF8781B087040E00020DFF8701B08700B
:1029D0003BE000BF31F4FF1F34F4FF1F35F4FF1F4D
:1029E0002EF4FF1F65F4FF1F63F4FF1F3DF4FF1F6C
:1029F00067F4FF1F68F4FF1F1D04FF1F3EF4FF1F55
:102A000061F4FF1F41F4FF1F4AF4FF1F4EF4FF1F44
:102A10004BF4FF1F4FF4FF1F6DF4FF1F55F4FF1F12
:102A200056F4FF1F9487FF1F78F4FF1F0120DFF883
:102A30009C1608700020DFF8581C08700020DFF892
:102A40007C1708700020CA490870DFF880060078FB
:102A5000DFF83C1C0978081802281AD10220DFF898
:102A60006C1608700220DFF8281C08700020DFF8C0
:102A70004C1708700020BE4908700120DFF80418C8
:102A800008700020DFF8B01A08700020DFF8AC1AD8
:102A90000870DFF874040078DFF8801D09780818E2
:102AA000012841F07083DFF860040078012840F0CD
:102AB0007B85DFF8CC0B0078002840F0BB80002538
:102AC000DFF8C4070078401E05F02AFADFF8501D31
:102AD0000870002004000026DFF834040078002885
:102AE00001D101200600DFF83C0D0078C01CDFF8A2
:102AF000301D0978884267DAE4B2282C64DADFF8FE
:102B000088070078DFF81C1D0978401A05F008FADC
:102B1000062859DBDFF8100DDFF8041D0978502274
:102B200002FB0100E4B2205C002805D12100C9B2FB
:102B30000020FDF720FE04E02100C9B20320FDF7CC
:102B40001AFEDFF8E80C0078EDB2A84212D2DFF8E6
:102B5000C003007800280DD10120DFF8B4130870FD
:102B6000DFF828070470DFF8B80C0078401CDFF8A5
:102B7000A4130870DFF8B40C0078002814D10120E9
:102B8000DFF8FC1A08701FE052F4FF1F83F4FF1FE8
:102B900074F4FF1F2304FF1F1E04FF1F39F4FF1FDF
:102BA0003AF4FF1F2FF4FF1FDFF8800C00780400B9
:102BB000DFF8780C00780500DFF8640C0078401E20
:102BC000DFF85C1C08708EE7F6B2002E09D00020FA
:102BD000CF4908700020CF4908700020DFF8AC16FC
:102BE0000870DFF89C0A0078012823D1DFF8940AE6
:102BF000007800281ED1DFF8D8040078DFF8841AA6
:102C00000870DFF884060078DFF87C1A0870DFF8B7
:102C1000100C0078DFF8B814087000220021DFF8EB
:102C2000000C0078FDF775FEDFF8800D0078DFF806
:102C300058160870DFF8480A0078002840F06283D0
:102C4000DFF84C0A0078002840F0D382DFF8F00863
:102C50000078002834D1DFF830060078DFF8C41B94
:102C60000978401A05F05CF90B2819DBDFF8B40B82
:102C700000781E2814DADFF8100600781F280FDB12
:102C80000020DFF8481408700020DFF8041A0870EC
:102C90000020374908700020DFF820150870A8E2EE
:102CA0000120DFF8281408700020DFF8E41908700C
:102CB00000202F4908700020DFF80015087098E206
:102CC000DFF8EC0C0078002819D1DFF8E80C007868
:102CD000332804DADFF8E00C007805280FDA00204A
:102CE000DFF8E81308700020DFF8A419087000204E
:102CF0001F4908700020DFF8C414087079E2DFF87B
:102D0000B40C007883490978401A05F009F90628BF
:102D100080F27F817E480078012840F07A8100258A
:102D2000DFF8900C0078DFF8F81A0870DFF88C0CE8
:102D300000784B2808DA01200500DFF8800C0078C5
:102D4000001DDFF8781C0870DFF8DC0ADFF8D01A05
:102D50000978502202FB0100DFF8601C0978085C4A
:102D6000002809D002F0B1FC27E000BF6FF4FF1F7C
:102D70005EF4FF1F53F4FF1F0122DFF8400C0178BF
:102D8000DFF89C0A0078FDF7C4FDDFF8200C00781E
:102D9000401E05F0C5F8DFF8881A08700022DFF839
:102DA0001C0C0178DFF8780A0078FDF7B2FDDFF837
:102DB000FC0B0078DFF8081C0870EDB2012D06D17D
:102DC000DFF8F80B0078001FDFF8F01B0870DFF861
:102DD000F40B00780400DFF8DC0B0078DFF8401A11
:102DE00008704B480078002800F09A80DFF8500700
:102DF0000078002800F09480DFF8C40B0078DFF83A
:102E0000201A0978884280F08B80DFF81C0ADFF8EE
:102E1000101A0978502202FB0100E4B2205C00285D
:102E200000F07E80DFF8000ADFF8F41909785022FC
:102E300002FB0100E4B2205C002854D0DFF8E8096E
:102E4000DFF8DC190978502202FB0100E4B22018F7
:102E500010F8500C002846D1DFF8C40900782D493D
:102E6000097888423FD2DFF8B8090078DFF8441BC0
:102E70000978884237D2DFF8A8090078801E05F06B
:102E80004FF80600DFF8340B0078401E05F048F8D4
:102E90000700DFF8200B0078DFF884190870DFF8EE
:102EA00080090078F6B286421CD204213800C0B2F4
:102EB000FDF761FCDFF8040B00780F4909788842C0
:102EC0000DD20120144908700B4800780700DFF884
:102ED00050090078401EDFF848190870DFE700202D
:102EE0000D4908701CE0DFF838090078401EDFF853
:102EF0003019087075E700BF1004FF1F6AF4FF1F48
:102F00003CF4FF1F84F4FF1F6CF4FF1F85F4FF1FC8
:102F100071F4FF1F73F4FF1F87F4FF1FA9F4FF1F55
:102F2000DFF8040D0078012859D10120DFF8FC1CDE
:102F300008700120DFF8F01C087000209F4908701D
:102F40000020DFF8EC1C087060480078DFF84017BC
:102F50000978081801281CD15C480078012809D19B
:102F600001205A4908700320DFF824170870002058
:102F7000C4490870DFF818070078012809D101203A
:102F8000DFF80C1708700320504908700020BD4975
:102F90000870DFF8FC0600784C490978081800280A
:102FA00009D10320DFF8E8160870032047490870AC
:102FB0000020B449087045480078DFF8D416097835
:102FC0000818022840F015810420DFF8C4160870A4
:102FD00004203E4908700020AA49087009E1022037
:102FE0003A4908700220DFF8A816087000207349DB
:102FF00008700020DFF8381C08700120A149087013
:103000000020DFF8341508700020DFF83015087054
:10301000EFE0DFF87C060078002813D1DFF8640DBC
:1030200000780B280EDB0020284908700020DFF80C
:10303000601608700020DFF8F81B087000205F4958
:103040000870D6E0DFF848060078002822D1DFF8C3
:10305000380D007800281DD18B480078DFF8C417A0
:103060000978401A04F05CFF032813DADFF84809F6
:10307000007815280EDB0120144908700020DFF8C5
:10308000101608700020DFF8A81B087000204B49BC
:103090000870AEE002F019FB7B480078DFF82019D9
:1030A0000978401A04F03CFF0B283DDBDFF81009DB
:1030B000007875490978884236D2DFF8D40500785F
:1030C000002807D10020FDF7EBFC06E040F4FF1FCD
:1030D00033F4FF1F0120FDF7E3FC6A480078002865
:1030E0000FD10020DFF8A41C08700120DFF8A01524
:1030F00008700020DFF8381B087000202F49087086
:1031000077E00220DFF8841C08700220DFF88015C9
:1031100008700020DFF8181B08700020274908708D
:1031200001205849087064E0DFF85C0C0078002842
:1031300046D055480078DFF8581D0978401A04F049
:10314000EFFE0A280FDBDFF8480D00784E490978BA
:10315000884223D24C4800781E281FDADFF8E003AB
:10316000007800281AD00120DFF8201C0870022007
:10317000DFF81C1508700020104908700020DFF8E7
:10318000B01A087001203F4908700020DFF8A8132A
:1031900008700120DFF8A41308702AE00020DFF88F
:1031A000EC1B08700020DFF8E81408700020DFF83E
:1031B000801A08700020014908701AE05DF4FF1FB2
:1031C0000120DFF8C81B08700220DFF8C414087063
:1031D0000020DFF8C01C08700020DFF8541A0870C7
:1031E0000120284908700020D34908700120D349E4
:1031F0000870DFF89C040078012840F083802248A2
:1032000000781E2806DADFF8800B0078002801D14C
:1032100002F03EF8DFF8980700781B4909788842E9
:1032200019D3DFF88C07007817490978401A04F0A1
:1032300077FE05280FDBDFF878070078382813DBE6
:10324000DFF87C070078DFF8501C0978401A04F09A
:1032500067FE052808DADFF8300B0078002803D174
:103260000120FDF71DFC16E0DFF8300C0078002887
:103270000ED0DFF8280C0078332809DB0120FDF799
:103280000FFC08E050F4FF1F36F4FF1F75F4FF1F1A
:103290000020FDF705FCDFF8080C0078012808D0B5
:1032A000DFF81C070078DFF8F01B0978401A0628C1
:1032B00014DB0220DFF8D41A08700220DFF8D013E4
:1032C00008700020DFF8681908700020DFF8C41BC0
:1032D00008700120DFF8C81B087013E00020DFF839
:1032E000C01B08700020DFF8A41A08700120DFF866
:1032F000A01308700020DFF8381908700020DFF8EC
:10330000941B0870DFF878030078012840F04C81A6
:10331000DFF87C030078002840F02F81884800788F
:1033200000280ED10120DFF8641A08700020D84967
:1033300008700020DFF8F81808700020DFF8541B30
:1033400008707F480078012840F01781DFF8640694
:103350000078DFF83C1B0978401A04F0E1FD0628EC
:1033600080F2F080DFF8200A0078012840F0EA803F
:10337000DFF8501609780800DFF8141B0978DFF829
:10338000A0241170DFF8781D0978DFF894241278F2
:10339000914253D2DFF89014DFF88424127850233E
:1033A00003FB0211C0B2415C002947D0DFF8541D75
:1033B0000978DFF81026127891423FD2DFF8041620
:1033C0000978DFF8F8251278914237D2DFF85814DF
:1033D000DFF84C241278502303FB0211C0B2415C89
:1033E000002923D0DFF84014DFF83424127850236A
:1033F00003FB0211C0B2411811F8501C002915D16D
:10340000DFF81C140978DFF8882A127891420CD270
:10341000DFF80C140978DFF89C251278914204D269
:103420000121DFF80428117008E007E0DFF8F0134D
:103430000978491EDFF8E8231170A3E7DFF8E817E1
:10344000097801295DD10121DFF8E0271170012100
:10345000DFF8D42711700021DFF8382A117000211D
:10346000DFF8CC271170DFF824190978884A127820
:10347000511801291ED1DFF81419097801290AD140
:103480000121DFF8082911700321814A1170002100
:10349000DFF80C2A11707E49097801290AD101212F
:1034A0007B4A11700321DFF8E42811700021DFF856
:1034B000F029117076490978DFF8D0281278511870
:1034C00000290AD10321724A11700321DFF8BC28B8
:1034D00011700021DFF8C8291170DFF8B0180978E1
:1034E0006B4A12785118022947D10421684A117099
:1034F0000421DFF8982811700021DFF8A429117049
:103500003BE00121DFF8842811700221604A11702C
:103510000021DFF8802911700021DFF814271170D5
:103520000121DFF87C2911700021034A117001216B
:10353000024A117021E000BF5FF4FF1F76F4FF1F05
:1035400072F4FF1F0120DFF8441808700220504970
:1035500008700020DFF83C1908700020DFF8D01652
:1035600008700120DFF8381908700020DFF8781D96
:1035700008700120DFF8901B08704548007801288A
:1035800012D10220DFF804180870022040490870A8
:103590000020DFF89C1608700020DFF8F81808708B
:1035A0000120DFF8FC1808709C480078012840F0E2
:1035B000EA85DFF8580B0078002840F0A880002545
:1035C000DFF8FC030078401E04F0AAFC9449087060
:1035D0004F2004004F2005000026DFF8340B007850
:1035E000002801D101200600DFF8AC080078C01CDB
:1035F0008B49097888425BDAE4B2292C58DBDFF882
:10360000C0030078DFF890180978401A04F088FCAD
:1036100006284DDB844882490978502202FB0100CC
:10362000E4B2205C002805D12100C9B20120FDF7D9
:10363000A2F804E02100C9B20420FDF79CF8DFF8ED
:10364000340D0078EDB285420FD2DFF8C40A00785D
:1036500000280AD10120DFF8B81A087070480078F5
:10366000401CD4490870D5480470DFF8080D007874
:103670004F280FD10120DFF8941A087018E000BF1E
:103680006EF4FF1F37F4FF1F38F4FF1F70F4FF1FA5
:1036900041F4FF1FDFF8DC0C00780400DFF8D40CE5
:1036A000007805005E480078401E5D4908709BE781
:1036B000F6B2002E09D00020DFF8541A087000205E
:1036C000BC4908704F20BD490870DFF8400A0078F7
:1036D00001281CD1DFF8A00C0078002817D1B448CD
:1036E0000078DFF8941C0870B5480078DFF8AC1754
:1036F00008704B480078AE49087000224F214848B6
:103700000078FDF706F9A9480078AD490870DFF8A0
:10371000FC090078002840F0D983DFF870060078B3
:10372000002840F0AF82DFF860060078002806D15C
:10373000DFF858060078002801D001F0A9FDDFF875
:1037400048060078002834D1DFF8B40900783549FC
:103750000978401A04F0E4FB0B2819DB31480078A3
:103760001E2815DADFF8980900781F2810DB0020E2
:10377000DFF8181608700020DFF8001C0870002021
:10378000DFF8AC1408700020DFF80817087079E241
:103790000020DFF8F81508700120DFF8E01B087042
:1037A0000020DFF88C1408700020DFF8E81608709D
:1037B00068E280480078DFF8D8160978401A04F0EB
:1037C000AFFB062880F27F81DFF8440900780128EA
:1037D00040F079810025DFF8B806007810490870BC
:1037E000DFF820090078062808DB01200500DFF853
:1037F00014090078001FDFF80C1908700A480849FE
:103800000978502202FB0100DFF8F8180978085CFB
:1038100000280DD001F03FFF29E000BF6DF4FF1F2D
:1038200031F4FF1F6BF4FF1F9487FF1F2EF4FF1F5F
:103830000122DFF8D0080178DFF8440B0078FDF7AB
:1038400068F85A480078401E04F06AFBDFF8301B25
:1038500008700022DFF8AC080178DFF8240B00784C
:10386000FDF757F851480078DFF894180870EDB26A
:10387000012D06D1DFF88C080078001DDFF88418D0
:103880000870504800780400DFF804060078DFF87C
:10389000F01A0870DFF8F0040078002800F0948037
:1038A000DFF86C080078002800F08E80DFF8500800
:1038B0000078DFF8CC1A0978884280F08580DFF83C
:1038C000C40ADFF8BC1A0978502202FB0100E4B2F6
:1038D000205C002878D0DFF8AC0ADFF8A41A097859
:1038E000502202FB0100E4B2205C002856D0DFF831
:1038F000940ADFF88C1A0978502202FB0100E4B226
:10390000201810F8500C002848D1DFF8740A00780D
:10391000DFF87C150978884240D2DFF8640A007825
:1039200024490978884239D2DFF8540A0078801E89
:1039300004F0F6FA0600DFF8CC070078401C04F02B
:10394000EFFA0700DFF848050078DFF8341A08704E
:10395000DFF82C0A0078F6B286421ED20321380026
:10396000C0B2FCF708FFDFF81C0D0078DFF89417F1
:10397000097888420ED20120AB490870DFF8040DA7
:1039800000780700DFF8F8090078401EDFF8F0192A
:103990000870DDE70020A449087015E0DFF8E009B1
:1039A0000078401EDFF8D819087073E780F4FF1F15
:1039B00034F4FF1F74F4FF1F58F4FF1F2304FF1F8C
:1039C00035F4FF1F78F4FF1F9748007801285FD176
:1039D0000120964908700120934908700020DFF803
:1039E000B4140870002092490870DFF8A003007832
:1039F000DFF8881909780818012821D1DFF88C032D
:103A0000007801280BD10120DFF880130870032013
:103A1000DFF8681908700020DFF884140870DFF8F8
:103A20005C09007801280BD10120DFF850190870DB
:103A30000320DFF8581308700020DFF864140870C2
:103A4000DFF838090078D1490978081800280AD128
:103A50000320DFF8281908700320CC4908700020E3
:103A6000DFF83C140870C9480078DFF810190978AD
:103A70000818022840F006810420DFF800190870B9
:103A80000420C24908700020DFF814140870F9E01F
:103A90000220BE4908700220DFF8E01808700020FC
:103AA000DFF8F01308700020614908700120DFF88A
:103AB000F01308700020DFF8301808700020DFF8DD
:103AC00048160870DEE0DFF8C00B0078002817D138
:103AD000DFF8BC030078332803DAAA480078052809
:103AE0000EDA0020A94908700020DFF8901808704D
:103AF00000204F4908700020DFF898130870C1E0DB
:103B0000A2480078002813D1DFF8F80500780F28C4
:103B10000EDA00209D4908700020DFF86018087058
:103B20000020434908700020DFF868130870A9E0FE
:103B300001F0B1FDDFF8540B0078DFF8C415097807
:103B4000401A04F0EDF90B2840DBDFF8B4050078EB
:103B5000DFF8381B0978884238D20020FCF7A0FF34
:103B6000CF480078002820D1DFF81C0B007800280F
:103B70000DD10020854908700020DFF8001808707A
:103B800000202B4908700020C24908707AE001200B
:103B90007E4908700020DFF8E417087000202449EF
:103BA00008700020BB4908706CE00220774908705B
:103BB0000220DFF8C817087000201D490870002097
:103BC000B44908700120B64908705BE0DFF8400591
:103BD000007800283DD0DFF8B80A00784D2838DAA0
:103BE000DFF8A80A0078DFF8AC1A0978401A04F068
:103BF00097F90A281EDA0220644908700120DFF8CC
:103C00007C1708700020A34908700020084908703C
:103C10000120A34908700020DFF8CC1608700120AD
:103C2000DFF8E41408702DE087F4FF1F84F4FF1F11
:103C30005EF4FF1F0020554908700020DFF83C1794
:103C400008700020DFF8501A0870002091490870B1
:103C500018E002204D4908700120DFF82017087095
:103C600000208C4908700020DFF82C1A0870012011
:103C70008B4908700020DFF8701608700120DFF80B
:103C80008814087041480078012840F01F81DFF84F
:103C9000FC0900781E2806DADFF874040078002892
:103CA00001D101F042FBDFF8E0090078DFF8DC1910
:103CB000097888421AD3DFF8D0090078DFF8CC19E8
:103CC0000978401A04F02CF905280FDBDFF8B80951
:103CD000007838284ADBDFF828040078DFF8BC19C0
:103CE0000978401A04F01CF905283FDADFF82004AF
:103CF000007800280AD0DFF8A8090078401F04F0F7
:103D00000FF9DFF88C19097881422FDA00273B2060
:103D100004004F200500DFF8740900780600DFF882
:103D200084090078EDB2A84215D200222900C9B258
:103D30002000C0B2FCF7EDFDDFF86C090078F6B2A8
:103D4000864202D20120070005E0DFF85C09007816
:103D500006006D1EE3E7FFB2002F03D00120FCF741
:103D60009FFE18E00020FCF79BFE14E04B48007813
:103D700000280DD049480078332809DB0020FCF7E3
:103D80008FFE08E057F4FF1F71F4FF1F40F4FF1F80
:103D90000120FCF785FEDFF81409007800280BD01D
:103DA0003B4800780400D7480078050001F070FA1D
:103DB00037480470D348057039480078012807D087
:103DC000CF480078DFF8D4180978401A062869DB54
:103DD000CF480078002808D0DFF8D4080078401DCC
:103DE000DFF8AC180978884203DBC948007800285E
:103DF00058D1DFF898080078DFF88C1809788842E5
:103E000018D3DFF884080078DFF880180978884232
:103E100003D2BF48007800280CD1DFF86C08007886
:103E2000DFF86818097888421ED2DFF88008007829
:103E3000022819D10220DFF87C1808700220DFF870
:103E40003C1508700020DFF8501808700020114958
:103E50000870012012490870AD480078022835D159
:103E60000120AB49087031E000200D4908700120A5
:103E7000DFF8401808700020DFF8001508700020F7
:103E8000DFF8141808700020024908701EE000BF17
:103E900073F4FF1F5DF4FF1F6AF4FF1F3AF4FF1F66
:103EA00050F4FF1F0020DFF8101808700120DFF821
:103EB000041808700020DFF8C41408700020DFF830
:103EC000D81708700020DFF8F41708708F480078C2
:103ED000012840F05881DFF8DC070078002840F026
:103EE0003381DFF8C807007800280FD10020DFF801
:103EF000C41708700120DFF8841408700020DFF870
:103F0000981708700020DFF8B4170870DFF89C07D6
:103F10000078012840F01881DFF878070078DFF892
:103F2000A0170978401A03F0FBFF062880F2F28000
:103F300077480078012840F0ED80DFF868170978AD
:103F40000800DFF87C170978DFF834241170DFF8F7
:103F50003C170978DFF828241278914252D2DFF812
:103F60002414DFF81C241278502303FB0211C0B282
:103F7000415C002946D063490978DFF82827127888
:103F800091423FD2DFF81C170978DFF80427127836
:103F9000914237D2DFF8EC13DFF8E4231278502394
:103FA00003FB0211C0B2415C002923D0DFF8D41317
:103FB000DFF8CC231278502303FB0211C0B2411862
:103FC00011F8501C002915D1DFF8B4130978DFF877
:103FD000F026127891420CD2DFF8A4130978DFF8AA
:103FE000B4261278914204D20121DFF8D82611704C
:103FF00008E007E0DFF888130978491EDFF880231E
:104000001170A4E7DFF8BC16097801295DD1012100
:10401000DFF8B42611700121DFF8A8261170002105
:10402000DFF8982611700021DFF86C261170DFF898
:1040300084160978D14A1278511801291ED1DFF867
:104040007416097801290AD10121DFF86826117058
:104050000321CA4A11700021DFF85C261170C7499C
:10406000097801290AD10121C44A11700321DFF81E
:10407000442611700021DFF840261170BF490978ED
:10408000DFF830261278511800290AD10321BB4AE3
:1040900011700321DFF81C2611700021DFF81826AB
:1040A0001170DFF810160978B44A127851180229F5
:1040B0004AD10421B14A11700421DFF8F8251170AA
:1040C0000021DFF8F42511703EE00221DFF8E4253D
:1040D00011700121A94A11700021DFF8E02511704B
:1040E0000021DFF8B42511700121DFF8CC25117013
:1040F00000217D4A11700121034A117024E000BFA4
:1041000036F4FF1F75F4FF1F76F4FF1F6FF4FF1FD7
:1041100072F4FF1F0220DFF89C15087001209749F8
:1041200008700020DFF8941508700020DFF868158B
:1041300008700120DFF88015087000206A490870B7
:104140000120DFF8AC1B0870DFF868050078012853
:1041500019D10220DFF85C15087002208749087029
:104160000020DFF8341508700020DFF850150870C3
:104170000120DFF84415087000205B49087000201A
:10418000DFF86C1B0870DFF86C0B0078DFF8681B39
:1041900009780818022840F02A82DFF8600B0078BE
:1041A000DFF85C1B09780818002840F03B81DFF835
:1041B0000C050078DFF8E0140978081800282ED1E3
:1041C000DFF8400B0078DFF8401B0978081800285A
:1041D0000FD10020DFF8DC14087000206749087058
:1041E0000020DFF8D81408700020DFF8AC14087045
:1041F00015E00220614908700220DFF8B814087049
:104200000020DFF8B81408700020DFF88C14087064
:104210000120DFF8A4140870012033490870DFF88A
:104220009C040078DFF8701409780818012840F021
:10423000BF80DFF8D00A0078DFF8CC1A09780818B8
:1042400000283DD1DFF8C40A0078DFF8401409786F
:10425000884216D20120DFF85C140870002047491C
:1042600008700020DFF8501408700020DFF85414A4
:1042700008700020DFF8441408700020DFF81814DC
:104280000870DFF808040078DFF8801A097888429F
:1042900016D20020DFF81C1408700120374908707E
:1042A0000020DFF8141408700020DFF818140870DC
:1042B0000020DFF8081408700020DFF8DC13087015
:1042C000DFF8400A0078DFF8401A0978081801285A
:1042D0006EDBDFF8B8030078DFF8301A097888421F
:1042E00032D2DFF8A80301E05FF4FF1F0078DFF8A7
:1042F000841B0978401A05280FDA01201F4908702D
:104300000020DFF8B01308700020DFF8B013087049
:104310000020DFF8841308704AE002201749087073
:104320000220DFF8901308700020DFF89013087067
:104330000020D94908700120DFF87C1308700120A3
:10434000DFF8CC19087033E0DFF8C0090078D349F2
:104350000978401A052817DA00200849087001205A
:10436000D44908700020D54908700020CA49087057
:104370001EE000BF1004FF1F39F4FF1F41F4FF1FB0
:1043800031F4FF1F9487FF1F0220DFF8EC1A08703A
:104390000220C84908700020C84908700020BE49A2
:1043A00008700120C44908700120DFF86419087002
:1043B000C2480078B84909780818022832D1DFF8D5
:1043C00044090078DFF8401909780818012813DB40
:1043D0000220DFF8A41A08700220B64908700020F5
:1043E000B64908700020AC4908700120B249087035
:1043F0000120DFF81C190870DFF808090078DFF8E1
:1044000008190978081800280CD10020A94908705B
:104410000020DFF8641A08700020A8490870002006
:104420009D490870DFF8D8080078DFF8D0180978BF
:104430000818012840F0C280DFF8C0080078012881
:104440005BD1DFF8C0080078DFF8BC1809780818DD
:1044500001283CDBDFF8240A0078DFF8241A087012
:10446000DFF8200A0078DFF8201A0870DFF81C0A4D
:104470000078DFF81C1A0870DFF8180A0078DFF8F7
:10448000181A0870DFF8140A0078DFF8141A087098
:10449000DFF8100A0078DFF8101A0870DFF80C0A4D
:1044A00000787A4908700220DFF8CC1908700220E1
:1044B0008049087000208149087000207649087002
:1044C00001207D4908700120DFF844180870DFF8EA
:1044D00034080078DFF830180978081800280CD163
:1044E0000020744908700120DFF88C190870002042
:1044F00072490870002068490870DFF804080078E5
:1045000001285BD1DFF8FC070078DFF8FC17097899
:10451000081801283CDBDFF864090078DFF860192F
:104520000870DFF860090078DFF85C190870DFF8C0
:104530005C090078DFF858190870DFF8580900782E
:10454000DFF854190870DFF868090078DFF864199B
:104550000870DFF8640900784B490870DFF85C09DF
:104560000078DFF8A81708700220DFF80C1908702F
:104570000220504908700020504908700020464928
:10458000087001204C4908700120DFF8841708707A
:10459000DFF870070078DFF870170978081800282E
:1045A0000CD10120434908700020DFF8CC180870B6
:1045B000002042490870002037490870DFF84007A2
:1045C0000078DFF838170978081802280FD1022080
:1045D000DFF8A41808700220364908700020374917
:1045E000087000202C490870012033490870DFF85A
:1045F0008808007801281BD1DFF8C40800780B2850
:1046000016DBDFF8C0080078082811DB294800789D
:1046100000280DD1DFF85C0800781C490978401AA1
:1046200003F07EFC0B2803DB0020DFF84C18087039
:104630002048007801281BD1DFF88C0800780B286F
:1046400016DBDFF888080078082811DBDFF8280877
:10465000007800280CD111480078DFF8B0160978EE
:10466000401A03F05DFC0B2802DB002011490870A2
:104670000020DFF85C1808700020DFF8881A087046
:10468000F1BD00002EF4FF1F33F4FF1F35F4FF1FB0
:104690002304FF1F74F4FF1F5EF4FF1F6BF4FF1F62
:1046A0000411FF1F78F4FF1F80F4FF1F71F4FF1F38
:1046B00070F4FF1F40F4FF1F50F4FF1F5DF4FF1F55
:1046C00073F4FF1F87F4FF1F84F4FF1F70B50120F0
:1046D000DFF8001808700020DFF82C1A087000F0CE
:1046E00019FBDFF8F4070078DFF8F0170870DFF83F
:1046F0001C0A0078DFF8E817087003F023FDDFF8E4
:10470000E4070078012808D1DFF8DC0700780028EA
:1047100003D10020DFF8D417087000F0FBFADFF8AF
:10472000B8070078DFF8B4170870DFF8E009007800
:10473000DFF8AC170870002401200400E4B23C2C20
:1047400006DA0020DFF89817E4B26054641CF5E73D
:1047500001200400E4B23C2C06DA0020DFF87C17CC
:10476000E4B26054641CF5E7FCF70CFC0020040084
:10477000E4B23C2C06DA0020DFF89419E4B260546D
:10478000641CF5E7DFF88C09007801282DD10220A0
:10479000DFF8501708700120DFF85017087000216B
:1047A0006F2003F056FF0021112003F052FF00217B
:1047B0009A2003F04EFFDFF85C090078012820D131
:1047C000DFF854090078DFF854190870DFF804079F
:1047D0000078002801D105F08DFDDFF8F80600789B
:1047E00001280ED104F040FC0BE001216F2003F002
:1047F00030FF0121112003F02CFF01219A2003F04A
:1048000028FFDFF81C090078DFF86C160978081813
:10481000002840F02C820120DFF8EC1808703B20C3
:10482000DFF800190870FBF725FEDFF8F0080078C4
:10483000DFF8E4180870DFF8E0080078FCF7D4F837
:10484000DFF8D4080078FCF7F9F8DFF8CC08007836
:10485000DFF8C8180870DFF8C4080078DFF8C81857
:104860000870DFF8B8080078DFF8A4180870DFF8DF
:104870009C080078DFF868160870DFF85C0600789E
:10488000DFF858160870DFF8A408DFF898180978E0
:10489000502202FB0100DFF84016097808180021B9
:1048A0004170DFF88808DFF87C180978502202FB95
:1048B0000100DFF8581809780818002100F8011CD9
:1048C000DFF86808DFF85C180978502202FB010065
:1048D000DFF84818097800220A543A20DFF8441813
:1048E00008700120DFF848180870DFF838080078F1
:1048F000002800F0C880DFF82C08007815280EDAB0
:10490000DFF82808DFF81C180978502202FB0100A4
:10491000DFF808180978085C002800F0B480FBF77D
:104920007BFDDFF810080078012800F0AC80FBF771
:10493000A1FDDFF804080078002840F08A80DFF845
:10494000E4070078372880F28480DFF8D007007809
:10495000DFF8BC17DFF8D8271278511811F8031CBC
:10496000401A03F0DDFA032873DBDFF8B80700789C
:1049700006286EDBDFF8C4070078002869D1DFF86D
:104980009C0700780500DFF88807DFF8A41709788E
:10499000081810F8030C0600DFF87407DFF890170A
:1049A0000978081810F8030C06F0A6FFDFF8900746
:1049B000007800284DD0DFF88C070078002808D157
:1049C000DFF810050078012803D10120DFF8741703
:1049D00008700120DFF864170870F6B2EDB2AE423D
:1049E00019D20120DFF8601708700020DFF85C178B
:1049F0000870DFF830070078DFF854170870DFF828
:104A000024070078DFF84C170870DFF8CC04007832
:104A1000DFF844170870EDB2F6B2B54219D20120A2
:104A2000DFF8281708700020DFF81C170870DFF87F
:104A3000F4060078DFF818170870DFF8E806007849
:104A4000DFF818170870DFF8C4060078DFF81017D1
:104A50000870DFF8C8060078032804DBDFF8BC061E
:104A600000784E2800DB0EE0DFF8B8060078401E24
:104A7000DFF8B0160870DFF8B8060078401CDFF8E1
:104A8000B016087031E7DFF8C0060078002848D07B
:104A900098480078002842D19748007800283ED1F5
:104AA000DFF83C040078DFF834140978401A322823
:104AB00035DADFF87C16097808000121DFF8702666
:104AC00011703A21DFF85C261170DFF8581609786A
:104AD000002926D0DFF858160978C0B2814220D2CA
:104AE000DFF84816DFF83C261278502303FB02114A
:104AF000DFF81C26DFF838361B789A5C0023535405
:104B0000DFF820160978491EDFF818261170DFF843
:104B100020160978491CDFF818261170D5E706F031
:104B20006FFDDFF828060078002848D0714800782B
:104B3000002842D17048007800283ED1DFF8A00359
:104B40000078DFF898130978401A322835DADFF850
:104B5000E015097808000121DFF8D42511703A2109
:104B6000DFF8C0251170DFF8BC150978002926D0C0
:104B7000DFF8BC150978C0B2814220D2DFF8AC154D
:104B8000DFF8A0251278502303FB0211DFF88025FF
:104B9000DFF89C351B789A5C00235354DFF88415AA
:104BA0000978491EDFF87C251170DFF88415097833
:104BB000491CDFF87C251170D5E706F021FDDFF8F0
:104BC00088050078002852D1DFF880050078002899
:104BD0004DD1DFF850050078052808DADFF83C05EC
:104BE0000078DFF834150978401A03F099F9DFF8F6
:104BF0004015097808000121DFF8342511703A21A9
:104C0000DFF820251170DFF81C15097800292ED057
:104C1000DFF81C150978C0B2814228D2DFF8F01401
:104C2000DFF800251278891A91F83B1000291ED070
:104C3000DFF8F814DFF8EC241278502303FB02119C
:104C4000DFF8CC24DFF8E8341B789A5C0023535457
:104C5000DFF8D0140978491EDFF8C8241170DFF896
:104C6000D0140978491CDFF8C8241170CBE7DFF8AD
:104C7000B004007880490978081801280CD1DFF8C1
:104C8000A0040078012801D106F0D4FF7A4800780A
:104C9000012801D106F0C2FEDFF8C804007801281F
:104CA00001D102F0B3FCDFF868044078002803D19A
:104CB0000120DFF8B414087007F0FBF80020DFF8DB
:104CC000A41408700020124908700020DFF89C141A
:104CD00008700020DFF8981408700020DFF89414A2
:104CE00008700020DFF89014087000F001F970BD22
:104CF00076F4FF1F6CF4FF1F6DF4FF1F6FF4FF1FAE
:104D00006EF4FF1F51F4FF1F52F4FF1F36F4FF1F14
:104D10005FF4FF1F3B20DFF80C1408700020DFF861
:104D20006C140870DFF8640400784F283EDADFF86E
:104D30005C04007868490870DFF8F003DFF8E413DA
:104D40000978502202FB0100DFF840140978085C62
:104D500000282BD1DFF8D403DFF8C81309785022DC
:104D600002FB0100DFF824140978085C002815D143
:104D7000DFF8B803DFF8AC130978502202FB01001A
:104D8000DFF80814097808184078002806D0DFF802
:104D9000FC030078401C5049087007E0DFF8EC0382
:104DA0000078401CDFF8E4130870BBE73B20DFF815
:104DB000741308704F20DFF8D4130870DFF8CC03A9
:104DC000007800283ED0DFF8C4030078DFF83C13F9
:104DD0000870DFF85803DFF84C130978502202FB03
:104DE0000100DFF8A8130978085C00282AD1DFF851
:104DF0003C03DFF830130978502202FB0100DFF892
:104E00008C130978085C002814D1C848C549097872
:104E1000502202FB0100DFF874130978081810F81B
:104E2000010C002806D0DFF864030078401EB74963
:104E3000087007E0DFF854030078401EDFF84C13D9
:104E40000870BBE724480078DFF844130870AF48C7
:104E50000078DFF8401308701F480078AB490978E4
:104E6000081880B24008AC490870AB480078A849DF
:104E7000087070476AF4FF1F41F4FF1F4EF4FF1FD4
:104E80004AF4FF1F4FF4FF1F4BF4FF1F4CF4FF1FAA
:104E900048F4FF1F4DF4FF1F49F4FF1F1E04FF1FBE
:104EA0001D04FF1F39F4FF1F34F4FF1F3AF4FF1FE6
:104EB0001F04FF1F1C04FF1F37F4FF1F38F4FF1FE0
:104EC00057F4FF1F59F4FF1F58F4FF1F5AF4FF1F38
:104ED0002FF4FF1FCDF4FF1F2EF4FF1F0411FF1F3F
:104EE000C810FF1FA8F4FF1F9EF4FF1F2504FF1F1B
:104EF0000020A94908700020A84908700020A8498E
:104F000008700020A749087000208D490870002013
:104F1000A54908700020A54908700020A449087020
:104F20000020A449087000207A49087000207C49BC
:104F300008700020A04908700020A04908700020D7
:104F40009F49087000209F49087000209E49087002
:104F500000209E49087000209D49087000209D494E
:104F6000087000209C49087000209C4908700020AF
:104F70009B49087000209B49087000209A490870DE
:104F800000209A490870002099490870002099492A
:104F90000870002098490870002098490870002087
:104FA00097490870002097490870002096490870BA
:104FB0000020964908700020954908700020954906
:104FC000087000209449087000209449087023203C
:104FD0009349087023209349087023209249087050
:104FE0002D20924908702D20914908702D2091495B
:104FF0000870002090490870002090490870002037
:105000008F49087000208F49087000208E49087071
:1050100000208E49087000203F49087000208C490C
:10502000087000208B490870002054490870002047
:10503000544908700020524908704F2052490870A6
:1050400000208549087000208449087000203A49F2
:105050000870002082490860002082490860002012
:10506000814908600020814908600020804908705B
:10507000002080490870002023490870002035492D
:10508000087000203549087000203349087000205E
:105090003349087000202D49087000202A49087003
:1050A0000020754908700020744908700020744978
:1050B0000870002073490870002020490870002102
:1050C0000800C0B23C2805DA0021114AC0B2815460
:1050D000401CF6E700210800C0B23C2805DA002198
:1050E000694AC0B28154401CF6E700210800C0B2F2
:1050F0003C2805DA0021654AC0B28154401CF6E71D
:105100007047000030F4FF1F8DF4FF1F1004FF1FD5
:105110008C10FF1F87F4FF1F78F4FF1F3DF4FF1F63
:1051200040F4FF1F31F4FF1F3FF4FF1F9487FF1F60
:105130001104FF1F81F4FF1F79F4FF1F94F4FF1F78
:1051400096F4FF1F95F4FF1F97F4FF1F98F4FF1FBD
:105150009DF4FF1F99F4FF1F9BF4FF1F9AF4FF1F9C
:105160002404FF1F50F4FF1FADF4FF1F42F4FF1F84
:1051700043F4FF1F46F4FF1F47F4FF1F73F4FF1FA4
:1051800075F4FF1F74F4FF1F2304FF1F32F4FF1F89
:1051900070F4FF1F2204FF1FAAF4FF1FABF4FF1FD0
:1051A00092F4FF1F93F4FF1F58F4FF1F57F4FF1FE3
:1051B0003BF4FF1F3CF4FF1F41F4FF1F33F4FF1FBC
:1051C00034F4FF1F36F4FF1F35F4FF1F5DF4FF1F9B
:1051D0005EF4FF1F44F4FF1F45F4FF1F60F4FF1F40
:1051E00061F4FF1F37F4FF1F38F4FF1F39F4FF1F6E
:1051F0003AF4FF1F6CF4FF1F6DF4FF1F68F4FF1FEC
:1052000069F4FF1F5FF4FF1F62F4FF1F63F4FF1FC9
:1052100064F4FF1F65F4FF1F66F4FF1F67F4FF1FB0
:105220001F04FF1F1C04FF1F2104FF1F1E04FF1F7C
:105230001D04FF1F2004FF1F6AF4FF1F6BF4FF1FF4
:105240006EF4FF1F6FF4FF1F51F4FF1F52F4FF1F96
:1052500071F4FF1F72F4FF1F76F4FF1F77F4FF1F36
:105260006011FF1F6411FF1F6811FF1F6C11FF1FEA
:105270008CF4FF1F8FF4FF1F91F4FF1F90F4FF1FAA
:105280009EF4FF1F8EF4FF1F0411FF1FC810FF1FA5
:1052900070B50026DFF868040078040000200500DF
:1052A000DFF860040078401EDFF854140870DFF85F
:1052B00058040078DFF848140978884231D2290070
:1052C000C9B20020FBF757FAF6B2012E04D1DFF87D
:1052D0003C040078002802D0F6B2032E0EDB012039
:1052E000DFF82C140870DFF818040078401CDFF891
:1052F00024140870DFF82004057012E0DFF80C04B5
:105300000078EDB2A84200D2761CDFF800040078E5
:105310000500DFF8EC030078401EDFF8E4130870A6
:10532000C5E7DFF8DC03047070BD70B50026DFF858
:10533000D003007804004F200500DFF8E003007878
:10534000401EDFF8BC130870DFF8D4030078DFF8E4
:10535000B0130978884231D22900C9B20120FBF785
:105360000AFAF6B2012E04D1DFF8B80300784F280C
:1053700002D0F6B2032E0EDB0120DFF8AC1308706A
:10538000DFF87C030078401CDFF8A0130870DFF81A
:10539000A003057012E0DFF88C030078EDB28542BF
:1053A00000D2761CDFF87C0300780500DFF850039C
:1053B0000078401EDFF848130870C5E7DFF84003A7
:1053C000047070BDF8B504000D00E4B2002C44D1A7
:1053D000DFF82C03007800283FD0DFF824030078A2
:1053E000401EDFF81C130870DFF820030078060069
:1053F000DFF8180301780320FBF7BDF9DFF80C0391
:105400000078F6B2864225D3DFF8F402007800284F
:1054100020D0BB480078401EB9490870BB480078CE
:105420000600BA4801780320FBF7A5F9B7480078D1
:10543000F6B286420AD30120B5490870B048007818
:10544000C01CB4490870B448057006E00020B0499B
:10545000087002E00020AE490870E4B2012C3DD192
:10546000A7480078002839D0A5480078401EA449F4
:105470000870AC4800780700AA4801780420FBF7C0
:105480007AF9A8480078FFB2B84224D39C48007843
:10549000002820D09A480078401E99490870A148F9
:1054A000007807009F4801780420FBF764F99D48C5
:1054B0000078FFB2B8420AD301209B490870904897
:1054C0000078C01C994908709948057006E00020D2
:1054D0009549087002E0002093490870F1BD2DE95C
:1054E000F84304000D00160000200700002080464D
:1054F0000020814601208F4908708F4800780028DD
:1055000010D08E4800788E49097888420AD28B489C
:105510000078002803D089480078804602E0884857
:105520000078804687480078002810D084480078AA
:105530008249097888420AD281480078002803D03D
:105540007F480078804602E07C4800788046E4B2DC
:10555000002C4FD1EDB2002D4CD06D1E5FFA88F8B3
:10556000EDB2A8453DD25FFA89F9B9F10A0F38DAF0
:10557000634805703100C9B20020FBF7FCF86348AE
:105580000078F6B2B04213D13100C9B20320FBF764
:10559000F2F85E480078F6B2B04209D20120070066
:1055A00057480078401C684908706848067018E041
:1055B000564800780600F6B254480078301A02F0D7
:1055C000AFFC052809DB012007004D480078401C8E
:1055D0005D4908705D48067003E06D1E19F1010910
:1055E000BCE7FFB2002F05D1454800785649087046
:1055F00056480670E4B2012C4BD1EDB2002D48D0D4
:105600006D1E5FFA88F8EDB2A84539D25FFA89F9C4
:10561000B9F10A0F34DA3A4805703100C9B20120F5
:10562000FBF7A9F83F480078F6B2B04211D131003B
:10563000C9B20420FBF79FF83A480078F6B28642D8
:1056400007D22F480078401C414908704148067035
:1056500016E0344800780600F6B232480078301A76
:1056600002F05EFC052807DB25480078401C38491D
:1056700008703848067003E06D1E19F10109C0E793
:10568000FFB2002F05D11E4800783149087031481B
:105690000670BDE8F183204A127810001D4A127886
:1056A0001100C9B203290FDB2B4AC9B2502303FBF7
:1056B0000122C0B2821812F8502C002A02D1114ADD
:1056C000117001E0491EECE77047194A127810008A
:1056D000164A12781100C9B203290FDB1E4AC9B25B
:1056E000502303FB0122C0B2821812F8502C002A6A
:1056F00002D10A4A117001E0491EECE77047000030
:1057000031F4FF1F36F4FF1F6BF4FF1F2EF4FF1F51
:1057100071F4FF1F73F4FF1F75F4FF1F35F4FF1FB3
:105720006AF4FF1F1004FF1F72F4FF1F74F4FF1FC1
:105730002304FF1F8CF4FF1F6EF4FF1F33F4FF1FC1
:1057400034F4FF1F6FF4FF1F7CF4FF1F7DF4FF1F75
:105750007EF4FF1F7FF4FF1F9487FF1F2DE9F8439E
:105760002DED048BDFF84C0400680400DFF84804DA
:1057700000680500DFF8000C00680600DFF8FC0B8D
:1057800000680700002080469FED820AB0EE408A44
:105790009FED800AF0EE408A9FED7E0AB0EE409ABF
:1057A0005FF00009DFF8D80B0078012804D1DFF89A
:1057B000D40B00783B280BD0DFF8CC0B0078DFF857
:1057C000CC1B0870DFF8C80B0078DFF8C81B087026
:1057D000DFF8B80B0078401EDFF8BC1B0870DFF85C
:1057E000B40B00788146DFF8A40B00784F2809DA63
:1057F000DFF8A00B0278DFF8940B01780020FFF7A8
:105800006EFE08E0DFF8940B0278DFF8940B017865
:105810000020FFF764FEDFF88C0B0078401CDFF8F7
:10582000781B0870DFF8800B00788146DFF8680B82
:105830000078DFF8581B0978884267D24946C9B218
:105840000320FAF798FFDFF8640B007800285DD09A
:10585000DFF8580B00785FFA89F981454ED35FFA7B
:1058600089F9DFF8480B0078B9EB000003281EDA4D
:1058700018F10108DFF8340B00788146DFF82C0BB3
:105880000078DFF8141B097801FB0044DFF81C0BDB
:1058900000782D18DFF8000B00783618DFF80C0BB5
:1058A0000078DFF8081B097801FB007726E0DFF8B5
:1058B000DC0A0078DFF8E01A0978401A03281DDBBB
:1058C00018F10108DFF8E40A00788146DFF8DC0A05
:1058D0000078DFF8C41A097801FB0044DFF8CC0A2D
:1058E00000782D18DFF8B00A00783618DFF8BC0A07
:1058F0000078DFF8B81A097801FB0077DFF8980A1A
:105900000078401CDFF8901A08708FE704FB08F05D
:1059100006FB150000EE100AB8EEC00AB0EE408A91
:1059200006FB07F004FB150000EE100AB8EEC00AF3
:10593000F0EE408A07FB08F005FB150000EE100AA8
:10594000B8EEC00AB0EE409AB5EE409AF1EE10FA09
:1059500018D088EE090ADFF8580A80ED000A88EEB0
:10596000890ADFF8500A80ED000ADFF84C0ADFF8F8
:10597000401A09680160DFF8440ADFF8381A09683C
:10598000016003E00220DFF8381A0870BDEC048BD8
:10599000BDE8F183000000002DE9F8432DED048BF4
:1059A0000024844800680500834800680600DFF88A
:1059B000C80900680700DFF8C409006880460020B5
:1059C00081469FED7B0AB0EE408A9FED790AF0EEAA
:1059D000408A9FED770AB0EE409ADFF8E809007838
:1059E000012804D1DFF8E00900783B280BD0DFF86C
:1059F000DC090078DFF8D8190870DFF8D8090078DA
:105A0000DFF8D4190870DFF8C80900784F2809DAE0
:105A1000DFF8C4090278DFF8B80901780120FFF740
:105A20005EFD08E0DFF874090278DFF8B00901785C
:105A30000120FFF754FDDFF8A8090078401CDFF8CB
:105A400058190870DFF89C0900780400DFF848094D
:105A50000078DFF87C190978884264D22100C9B245
:105A60000420FAF788FEDFF8800900784F285AD022
:105A7000DFF874090078E4B2A0424CD3DFF868097B
:105A80000078E4B2001B03281EDA19F10109DFF8DF
:105A9000580900780400DFF850090078DFF8F8189A
:105AA000097801FB0055DFF8400900783618DFF867
:105AB000E80800783F18DFF830090078DFF8281987
:105AC000097801FB008826E0DFF804090078DFF898
:105AD000C8180978401A03281DDB19F10109DFF8FD
:105AE000080900780400DFF800090078DFF8A8183A
:105AF000097801FB0055DFF8F00800783618DFF868
:105B0000980800783F18DFF8E0080078DFF8D81828
:105B1000097801FB0088DFF880080078401CDFF876
:105B20007818087092E705FB09F007FB160000EEF5
:105B3000100AB8EEC00AB0EE408A07FB08F005FB79
:105B4000160000EE100AB8EEC00AF0EE408A08FB1C
:105B500009F006FB160000EE100AB8EEC00AB0EE1F
:105B6000409AB5EE409AF1EE10FA18D088EE090A84
:105B7000DFF8780880ED000A88EE890ADFF87008FF
:105B800080ED000ADFF86C08DFF860180968016032
:105B9000DFF86408DFF858180968016003E00220A4
:105BA000DFF81C180870BDEC048BBDE8F183000021
:105BB000000000006011FF1F6411FF1F38B50024B2
:105BC0000025DFF8DC0700780400DFF8F407007830
:105BD000002840F09582DFF824080078002847D19B
:105BE000DFF81C080078042803DA0320DFF8101817
:105BF0000870DFF80C080078801EE4B2A04280F242
:105C0000B983E4B200EE104AB8EE400ADFF8A40708
:105C1000D0ED000AB4EE600AF1EE10FA16D5E4B247
:105C200000EE104AB8EE400ADFF88807D0ED000A0F
:105C300030EE600ADFF87807D0ED000A80EE200A27
:105C4000BDEEC00A10EE100A050001E000200500BC
:105C5000EDB2502D01DB4F200500DFF8A807E4B2BC
:105C6000502101FB0400EDB200212954641EC0E75D
:105C7000DFF80C070078002800F08F80DFF8880735
:105C8000007800284ED1DFF884070078372849DAF9
:105C9000FFF701FDDFF868070078032803DA032027
:105CA000DFF85C170870DFF858070078801EE4B250
:105CB000A04280F25F83E4B200EE104AB8EE400AE0
:105CC000DFF8F006D0ED000AB4EE600AF1EE10FA4B
:105CD00016D5E4B200EE104AB8EE400ADFF8D4065A
:105CE000D0ED000A30EE600ADFF8C406D0ED000AFD
:105CF00080EE200ABDEEC00A10EE100A050001E099
:105D000000200500EDB2502D01DB4F200500DFF82B
:105D1000F406E4B2502101FB0400EDB20021295445
:105D2000641EC0E7E4B23B2C80F22483E4B200EEB0
:105D3000104AB8EE400ADFF87C06D0ED000AB4EE57
:105D4000600AF1EE10FA16D5E4B200EE104AB8EE91
:105D5000400ADFF86006D0ED000A30EE600ADFF896
:105D60005006D0ED000A80EE200ABDEEC00A10EE0B
:105D7000100A050001E000200500EDB2502D01DB06
:105D80004F200500DFF87C06E4B2502101FB04003F
:105D9000EDB200212954641CC4E7DFF80406007842
:105DA000DFF8F4150870DFF868060078C01CDFF82B
:105DB000E8150978884225DADFF84806DFF8D815B3
:105DC0000978502202FB0100DFF848160978085CC8
:105DD000002817D0DFF83C0601780320FAF7CBFC47
:105DE000DFF8C8050078002804D10120DFF89015FD
:105DF000087007E0DFF8A0050078401EDFF898156E
:105E00000870D0E7DFF878050078002800F09E8061
:105E1000DFF804060078002805D1DFF8E4050078F3
:105E2000DFF8F4150870DFF8F4050078DFF8E41502
:105E30000978884207D3DFF8D4050078DFF8C01569
:105E40000978884248D2FFF726FCDFF8B4050078CD
:105E5000032803DA0320DFF8A8150870DFF8A0058F
:105E60000078801EE4B2A04270DAE4B200EE104A7C
:105E7000B8EE400ADFF83C05D0ED000AB4EE600A47
:105E8000F1EE10FA16D5E4B200EE104AB8EE400A70
